:400000000040002011000000E5030000E503000080B500AF00F0EAF980B584B000AF021CFB1D1A70204A3B1C0B3312781A701F4A3B1C0A3312781A700423013BFB6018E016
:400040001B4B1868391C0B31FA68131C5B009B18C3185B780B70164B1868391C0A31FA68131C5B009B18C3189B780B70FB68013BFB60FB68002B0ADB0D4B1968FA68131CF1
:400080005B009B185B5CFA1D12789A42D8D9094B3A1C0B3212781A60074B3A1C0A3212781A60BD4604B080BDCCF1FF0FCDF1FF0FCC0000201CFF0B4020FF0B4080B500AF4F
:4000C000234B12221A603020FFF7A6FF214B224A1278D2B21A60052000F014FC1F4B35221A6000F0B1FBFA235B00181C00F0E6FB012000F0B9FB1A4B1A4A1A601A4B802211
:40010000D2051A60194B1A4A1A601A4B194A126808218A431A60FA23DB00181C00F04EFB154B181C00F0EEFB144B154A1A60154B154A1A60154B802212061A60144B8022A2
:40014000D2021A60134B40221A60BD4680BDC0463000104028FF0B40FDF1FF0F2CFF0B4004010B40060000800C020B407C002E406A2D00006CF02E40DC05000000030140AE
:40018000007FBB000000014040FF008008010B4000010B401C01014080B582B000AF72B63A4B00221A60FB1D00221A7023E0FB1D1A78131C5B009B185B00354A9B183B60D2
:4001C0003B681A78597809020A43997809040A43DB781B0613431A1C3B6819795B791B020B439BB2101C191C00F084F9FB1D1A78FB1D01321A70FB1D1B78012BD7D9254A32
:40020000254B101C191C00F085F9244BEE2212061A60234BC02292051A60224BD82212041A60214B80221A60204BC02212041A601F4B992212041A601E4B992212041A6048
:400240001D4B802212061A601C4B1C4A1278D2B202210A43D2B21A70194B194A1278D2B20C218A43D2B204210A43D2B21A70134B124A1278D2B216210A43D2B21A70FFF766
:400280001DFF00F087F9BD4602B080BD6CF02E40040201001002010018020100000002400003024008000440000304400803044000500F4030500F4038500F4000700F4054
:4002C00001700F4010B5064C2378002B07D1054B002B02D0044800E000BF0123237010BD98030020000000009401010008B5084B002B03D00748084900E000BF0748036875
:40030000002B03D0064B002B00D0984708BDC04600000000940101009C030020C80000200000000080B500AF62B6064B181C00F019FB00F089F9044B181C00F023FC01F012
:4003400063F8FCE74D0300007103000080B582B000AF786039607B68012B02D0282B00D003E0002000F046FBC046BD4602B080BD80B584B000AF786039607A68BC235B001F
:400380009A420CD13B1C0F33002001211A1C00F069FC3B1C0F331B78181C00F003F8BD4604B080BD80B582B000AF021CFB1D1A70FB1D1B78012B07D0022B09D0002B0DD14C
:4003C000002000F06FF909E0FA2000F06BF905E0FA235B00181C00F065F9C046BD4602B080BDC04680B500AFFEE7C04680B586B000AF224B7B61224B3B61204B7B6135E0BA
:400400003B691B68FB603B695B68BB603B699B683B6000237B600CE0FB681A68BB681A60BB680433BB60FB680433FB607B6804337B607A683B689A42EED13B69DB683B6009
:4004400000237B6008E0BB6800221A60BB680433BB607B6804337B607A683B689A42F2D13B6910333B617B69013B7B617B69002BC6D100F07FFFFFF755FFFEE70100000086
:400480006C06010080B582B000AF154B144A126801218A431A6000237B600FE07B68032B04D8104B7A689200D35800E00E4B0F4A796889008B507B6801337B607B682F2B38
:4004C000ECD9FFF769FE0A4B00221A60044B044A126801210A431A60BD4602B080BDC0460000104000000000E503000000000020C000002080B582B000AF786039607A6850
:400500003B68101C00211A1C00F072FFBD4602B080BDC04680B586B000AF7860396000233B6100237B612EE07B699B007A68D3181B68BB603B1C0F33BA681A70BB68FF2272
:400540009343BB6017E03B695B003A68D3181B781A1CBB68D3183A69520039688A1852781A703B6901333B613B1C0F331A783B1C0F33013A1A703B1C0F331B78002BE2D19D
:400580007B6901337B617B69012BCDD9BD4606B080BDC04680B500AF054B03221A60054B03221A60044B00221A60BD4680BDC0463000304030003140000E3F4080B500AFF0
:4005C000104B8022D2041A600E4B0E4A12681A60002000F04BF80B4B0A4A12681A600A4B0C221A60012000F089F8084B31221A60FA239B00181C00F047F8002000F052F8F4
:40060000BD4680BD00012040240120402801204090B583B000AFFC1D00F087F8031C2370084B084A126801210A431A60FB1D1B78181C00F07EF80120182100F041F8BD46D7
:4006400003B090BD0000204080B500AF064B1B78002B04D1FFF7B2FF034B01221A70FFF7D7FFBD4680BDC046B403002080B582B000AF7860034B7A681204120C1A60BD46F8
:4006800002B080BD0801204080B582B000AF7860034B7A681204120C1A60BD4602B080BD1401204080B582B000AF7860034B7A681204120C1A60BD4602B080BD0C01204084
:4006C00090B585B000AF786039603C1C0F3400F02CF8031C2370084B3A687968081C9040021C1A603B1C0F331B78181C00F021F8BD4605B090BDC0460800204080B582B05A
:4007000000AF7860024B7A681A60BD4602B080BD38012040000000000230800803D00138FDD1C046C046C0467047EFF3108072B6704780F31088704780B500AF0B4B0B4AFF
:40074000126801218A431A60094B094A126830218A4310210A431A60054B054A126807218A4301210A431A60BD4680BD00F02E4000FF2E4080B500AF0E4B0E4A126802212B
:400780008A431A600C4B0C4A126807218A4302210A431A60084B084A126830218A4320210A431A60034B034A126801210A431A60BD4680BD00F02E4000FF2E4080B584B035
:4007C00000AF78600023FB60154B154A126801210A431A60134B144A1A60144B134A1268802109020A431A607B68002B13D01023FB600DE0012000F085F800F019F8031CD9
:40080000002B02D00023FB6005E07B68013B7B607B68002BEED1FB68181CBD4604B080BD60F02E4078002E400220000010002E4080B500AF034B1A6801231340181CBD4660
:4008400080BDC0460C002E4080B500AFFFF774FF044B044A1268802109060A431A60BD4680BDC04600F02E4080B584B000AF78600C4B1A6801231340FB607B68002B02D0C1
:40088000012B03D005E0FFF757FF06E0FFF772FF03E0002000F008F8C046FB68181CBD4604B080BD00F02E4080B582B000AF021CFB1D1A7001BEBD4602B080BD80B582B0EB
:4008C00000AF786008E00C4B1B68181CFFF724FF7B680A4A9B187B607A6880231B029A42F1D8074B1B687A685343181CFFF714FFBD4602B080BDC046DC0000200080FFFF5A
:40090000D400002080B582B000AF021CBB1D1A80BB1D1B88044A12785343181CFFF7FCFEBD4602B080BDC046D800002080B500AF064B00221A70064B00221A70054B0022D0
:400940001A7000F009F8BD4680BDC046A02400209E2400209F24002080B500AF00F00EF9BD4680BD90B585B000AF78603B1C0E3301221A80194B1B78002B04D1FFF7D6FFDA
:40098000164B01221A707B68002B1FD0144B7A681A603C1C0E34134A134B101C191C172200F048FD031C23803B1C0E331B88002B0CD10E4B01221A703C1C0E340C4B181C1D
:4009C0000E2108220BF018F8031C23803B1C0E331B88181CBD4605B090BDC046B803002094240020150E0000C00300209A2400200C03010090B585B000AF021CFB1D1A70C7
:400A0000294B1B78042B42D1284B1B78DBB21A1C042313403BD1FB1D1B78002B0BD1244B1E221A82224B5B6820221A80204B5B6830225A8010E0FB1D1B78012B0CD11C4BB0
:400A400096221A821A4B5B68C822D2001A80184B5B688022D2015A80164BFA1D12781A703C1C0E34124B181C09F034FA031C23803B1C0E331B88002B08D10C4B1B78DBB2D9
:400A800004221343DAB2094B1A7005E004E03B1C0E33832252001A803B1C0E331B88181CBD4605B090BDC0469A240020A02400203C0100209F24002080B582B000AF7860F4
:400AC0007B681B781A1C7B6801331B781B029BB213439BB2181CBD4602B080BD90B585B000AF78603B1C0F3300221A707B689A890B239A4237D17B681A1D7B683C1C0F3477
:400B0000101C00211A1C40230AF0AAFF031C23703B1C0F331B78002B1DD17B685B68181CFFF7CAFF031C1A1C022313409BB2002B08D0104B1B68822251007A68081C111C79
:400B4000984708E00B4B1B680622111CFF317A68081C111C9847084B1B78DBB201229343DAB2054B1A703B1C0F331B78181CBD4605B090BD94240020A024002080B500AF67
:400B8000BD4680BD80B582B000AF7860024B7A681A60BD4602B080BD5810002080B584B000AF3B1C0F3300221A700E223B1C1A813B1C3A1C0F321A603B1C01229A803B1C12
:400BC000181C0021002200230AF04AFFBD4604B080BDC04680B584B000AF78601F4B1B68002B38D00E227B689B899A4233D17B681B89012B2FD17B685B681B78022B2AD8DC
:400C00007B681A1D7B68101C00211A1C40230AF027FF031C002B1ED13B1C08337A6812881A803B1C083300229A707B681A1D3B1C08335A60094B1B68BC2251003A1C083216
:400C4000081C111C9847064B1B78DBB201229343DAB2034B1A70BD4604B080BD58100020A024002080B586B000AF3A60FB1D021C1A70BB1D0A1C1A703B1C163301221A80BD
:400C80003B68002B23D0FB1D1B78002B1FD1BB1D1B78012B1BD10E223B1C08331A81BB1D1B789AB23B1C08339A803B1C08333A681A603B1C0833181C002100220AF0B4FE07
:400CC000031C002B03D13B1C163300221A803B1C16331B88181CBD4606B080BD90B585B000AF78603C1C0F347B68181CFFF7F6FE031C2370144B1B78DBB21A1C0123134092
:400D00001FD13B1C0F331B78002B16D03B1C083312229A707B689A893B1C08331A803B1C08333A1C0F321278DA707B683A1C08321868111C0AF0E6F903E07B6818680AF04E
:400D400035FABD4605B090BDA024002080B582B000AF7860BD4602B080BDC04680B500AF044B00225A70034B00221A70FFF716FFBD4680BD9C24002080B582B000AF786043
:400D8000BD4602B080BDC04680B500AFBD4680BD80B584B000AF78603B1C0E3300221A707B689B79002B1CD13B1C0F3300221A7012E03B1C0F331B787A68D35C002B04D061
:400DC0003B1C0E3301221A700BE03B1C0F331A783B1C0F3301321A703B1C0F331B78052BE7D93B1C0E331B78181CBD4604B080BD80B582B000AF021CBB1D1A80BD4602B078
:400E000080BDC04680B582B000AF7860BD4602B080BDC04680B584B000AF021C3960FB1D1A70964B1B78DBB201221343DAB2934B1A70FB1D1B78712B00D904E19A00904B30
:400E4000D3181B689F463B1C0C3308221A703B1C0C3300225A703B1C0C33181C01F046FD3B1C0C3301225A703B1C0C33181C01F03DFD844B1B68181CFFF78AFF031C002B8E
:400E800005D0804B1B68181C00F0C2FA0FE07E4B1A787E4B1A707E4B1A787C4B5A707D4B1A787A4B9A70794B181C00F0B1FA032008F0D2FE784B04221A70C5E03B68181C10
:400EC000FFF75AFFC0E03B681A78744B1A70BBE06A4B1B78DBB21A1C202313400ED1704B1B78102B02D16E4B0522DA706D4B1A786B4B101C191C08F0B7FFA5E0A4E03B6829
:400F0000181CFFF77FFF9FE03B68181CFFF77AFF614B02221A7097E05F4B04221A7093E05D4B1B78022B34D0544B1B78DBB21A1C012313402DD0514B1B78DBB21A1C0423B8
:400F400013400BD0544B03221A704C4B1B78DBB204229343DAB2494B1A701AE0474B1B78DBB21A1C082313400BD04B4B04221A70424B1B78DBB208229343DAB23F4B1A70CA
:400F800007E0454B1B78032B03D1434B04221A705AE059E03B681B88181CFFF729FF53E0404A3B68111C1A1C0223081C111C1A1C00F015FA3B4B1B785A003B4BD3183B4A05
:400FC000111C1A1C0223081C111C1A1C00F007FAFFF7DAFE38E0FFF7C1FE35E03B685B88162B05D83B1C0E333A6852881A8003E03B1C0E3317221A803B683A1C0E321288CE
:40100000198800230904090C1B0C1B040B43181C111C0AF083F817E03B68181CFFF75EFE12E0164B1B78DBB21A1C0123134004D03B68181CFFF7CEFD06E005E03B68181C12
:40104000FFF784FE00E0C0460C4B1B78DBB21A1C112313400FD0094B1B78DBB201229343DAB2064B1A70124B1B68FA1D11783A68081C111C9847BD4604B080BDA024002001
:4010800080040100E80000207CF1FF0FE00000207DF1FF0F7BF1FF0F9A2400209E240020680100209C24002000030100982400209424002080B582B000AF78600A1CBB1C66
:4010C0001A80BB1C1A887B681A60BD4602B080BD80B582B000AF78600A1CBB1C1A80BB1C1A887B681A60BD4602B080BD80B582B000AF021CBB1D1A80BB1D1B88181CFFF7F6
:4011000001FCBD4602B080BD80B500AF00F068F8BD4680BD80B500AF00F06CF8BD4680BD80B500AF00F066F8044B181C00F024F8032000F02DF8BD4680BDC046091200007A
:4011400080B500AF024B181C00F004F8BD4680BD0912000080B582B000AF786000F04AF87B68181C00F008F8032000F011F800F037F8BD4602B080BD80B582B000AF786081
:40118000024B7A681A67BD4602B080BD0000002090B585B000AF021CFB1D1A700623FB603C1C0B34FFF7C1FA031C23700B4B0B4A1268C021101C8843011CFA1D1078FA68EB
:4011C000041C9440221C0A431A603B1C0B331B78181CFFF7AEFABD4605B090BD0CE400E080B500AF024B802252011A60BD4680BD00E100E080B500AF024B802252011A60E6
:40120000BD4680BD80E100E080B500AF0EF0AEFFBD4680BD002934D00123002210B488422CD301242407A14204D2814202D209011B01F8E7E400A14204D2814202D249003C
:401240005B00F8E7884201D3401A1A434C08A04202D3001B5C0822438C08A04202D3001B9C082243CC08A04202D3001BDC082243002803D01B0901D00909E3E7101C10BCCE
:401280007047002801D00020C04307B4024802A14018029003BDC046D90000000029F0D003B5FFF7B9FF0EBC4243891A1847C046002941D010B4041C4C40A44601230022AA
:4012C000002900D54942002800D5404288422CD301242407A14204D2814202D209011B01F8E7E400A14204D2814202D249005B00F8E7884201D3401A1A434C08A04202D361
:40130000001B5C0822438C08A04202D3001B9C082243CC08A04202D3001BDC082243002803D01B0901D00909E3E7101C6446002C00D5404210BC7047002806D003DB0020C7
:40134000C043400801E08020000607B4024802A14018029003BDC046190000000029EBD003B5FFF7A7FF0EBC4243891A1847C0467047C04670B50E4B0E4D0024ED1AAD101D
:401380001E1CAC4204D0A300F35898470134F8E70FF05AF9084B094D0024ED1AAD101E1CAC4204D0A300F35898470134F8E770BD5406010054060100540601005C060100EF
:4013C00030B50023934208D0C55C0133CC18013C2478A542F6D0281B00E0002030BD10B50023934203D0CC5CC4540133F9E710BD031C8218934202D019700133FAE77047E3
:4014000010B501F00FFA10BD10B500F0DBF810BD10B50749044609780220002907D1204601F026FA002802D1204608F0FFFC10BD7E020020F7B51F4E0024307815460F46FB
:40144000002804D00824B76075802046FEBD002F00D1012401F0E6F90098002805D0172D03D301204002854201D90124EBE7002CE9D12946384600F023F80400E3D170680A
:4014800000F01CF80400DED1706800F015F80400D9D101F0CFF90400D5D1009806F07EF80400D0D106F090F80400CCD101203070C9E700006C01002000207047002070471B
:4014C000F8B50D4607460026FFF73AFEFFF722FE00F03EFA040065D100F0C2FB040061D13449084600F080FD0404240C5AD1A80705D0A807800F0421081A401985B2172D78
:4015000002D968002E3886B22B48301881B2384601F06CF8040045D1284F03460246002825D127495E008E5B294610318E4207D99000C01941800221521C4170D2B215E0CD
:401540008E420BD10020787690001D49C0194680891FC95C891C4170012012E0052A06D1164806461436418302207071012014495E008E5B9100C9194E80114EB61FF65C99
:401580004E705B1C521CDBB2D2B2062BC7D30B4800F06CF8002C05D100F084F807490120891E087000F0E6F9002C01D0FF20F8BD0020F8BDD9150000940C00007A01002069
:4015C0008606010010B503480078012801D100F09DFE10BD780100207047000010B5011F0878034A8000105800F0A0FF10BD00005C10002010B5044604498000085800F085
:4016000003FF002801D00470001D10BD5C10002038B5044692B2C9B2684600F01BFF024AA1000098505038BD5C10002070B50B49064600204C6805466178002908D06188CA
:40164000B14202D32078FFF7D5FF002804D1241D6D1CEDB2082DEFD370BD00009C01002010B5002801D0FFF7B9FF10BD70B50B4E0446002570606178002905D062882078AA
:40168000121D0023FFF7C4FF6D1C241DEDB2082DF1D3024800F09CFFB06070BD9C010020002070471CB5002469460C70142001902346054A05480CF045F904480068401CE3
:4016C00000D1FF2420461CBD21170000A80100203EB5124A0146FF2000230124126800290DD0012914D0042908D104206946009308814B8110460CF020F980B23EBD684624
:40170000009304814381694610460CF011F9F4E768460093048143816946EBE7A801002070B54589046841680089030000F026F806240408081D2124002004F007FF1BE0BC
:40174000022908D0C8B22A4621460AF0E7FB2046FFF786FF10E002202A4621460AF0DEFB2946204600F018F806E000200BF0DEFD02E020460CF06CF9002070BD30B4744657
:40178000641E2578641CAB4200D21D46635D5B00E31830BC18470000014B0022DB681847AC01002010B542890168094B00899C68022803D0032804D0FF2010BD0023012024
:4017C00003E0121D002392B20220A047002010BDAC01002070470000024800214160018041807047AC01002070B50C46002186B016460391012802D0022859D116E003A975
:40180000012005F006FE01281BD1039D324621462846FFF7E4FD0095287801900220694608814E816846FFF7BDFF41E0214D002B686809D0049004A9022005F0EAFD01289B
:401840001DD0022006B070BD002812D0298840182146FFF7C4FD28880024801980B228806988091D884206D12C801348FFF79AFF03E00320E6E788421AD96C6018E00498C0
:401880006860E278A378110219430B4A698000231060E3565360032313815181A1788170E178C1706178417021780170042028800020C7E7AC0100207C100020F7B5022723
:4018C00084B016460546022802D0042D29D106E005980090019568460781428113E01046FFF7A4FE040016D032460599FFF777FD68460195009407810B4B4681DB68002217
:401900003146059898470948694600680CF015F8012007B0F0BD044B0022DB683146059898470020F5E70000AC010020A8010020014AD16090607047AC01002003480168E1
:401940008068081A0A214843000970478810002010B5FFF7E5FB542204490548FFF73FFD03490120C870002010BD000096060100D812002010B5FFF7C7FB10BD70B5134C4B
:401980002368002B08D0207B1149C20705D04008400020738868A08070BD88680B4AA18880B29268814203D90A4D691A091802E0814202D2411A5118A160A080A06898423A
:4019C000EAD300F015F80BF0D5FF70BD88100020C0102E40FFFF000010B508461946FFF7A7FF10BD704710B5FFF768FF10BD000003480021016041608160C1607047000095
:401A00008810002010B502000DD0FFF7F1FF074C0321207B0843207310010A21FFF73EFC2060002010BDFF2010BD00008810002000B504480A21806848430209FFF7D8FF80
:401A4000104600BD881000200248007B8007C00F704700008810002010B556490868002802DA554B01221A70022290430860534800695049C00B4031096A084260D00120A6
:401A800000F06EFA4D484E497C30FFF721FB49480E216C30FFF71CFB484820218430FFF717FB464814219C30FFF712FB4348FF21C131A430FFF70CFB4048FF212F31B03006
:401AC000FFF706FB3D483F49BC30FFF701FB3B483D49AC30FFF7FCFA3B493848491CB430FFF7F6FA35483949B830FFF7F1FA33483749CC30FFF7ECFA304836490830FFF740
:401B0000E7FA2E483449A830FFF7E2FA2B4833498830FFF7DDFA294831498C30FFF7D8FA26481921C9029030FFF7D2FA2D4C207E617E09020143042904D0002902D002E02C
:401B4000FF2010BD07211D487430FFF7C1FAA07EE17E0902014301204003814201D0002900D1214915487830FFF7B2FA227F607F01021E481143814204D01D48814201D0FB
:401B8000052901D119490A390C488030FFF7A0FAA07FE17F0902014335208001814201D0002900D1134905486C30FFF791FA002010BD000000F02E40BC01002000002E405E
:401BC00055650000320300002F3F00003102000010520000EC160000FA12000031D000003AE30000C0F0FF0F022000000F0F000005050000580B000070B50646581C80B245
:401C000045086D00002408E0304600F07FF81055000A1119A41C4870A4B2AC42F4D3D80705D0D0182038D15CC47FD454C17770BD30B50A4C002100195B1E07E054186478D7
:401C40002502545C2C430480891C89B29942F5DB994201D1515C018030BD000000102E4010B5FF2000F07CF90F49FF2088700E481021801D41800121417001700A49002075
:401C8000091D4870FFF7E8FE04000AD100F0C8F807210648FFF70EFA044807211830FFF709FA204610BD0000BC010020CC112E4030B504465B1C1804450C002308E02046D3
:401CC00000F024F8241D59005B1CA4B250529BB2AB42F4D330BD000070B500210A4D5B1E0AE0541864782602545C344346193480001D891C80B289B29942F2DB994202D1B2
:401D0000515C4019018070BD00102E40014940180088704700102E40014A80180180704700102E4010B508490020487000F078F807210648FFF7BEF9044807211830FFF756
:401D4000B9F9002010BD0000C0010020CC112E4010B50B46062812D006DC01280CD0032801D1FFF7DFFF10BD0A28FCD00B28FAD105480078107010BDFFF772FF10BD114654
:401D8000184600F01FF910BDC2010020F8B5214DAC6A0127A007204E002818DA3078062810D1286A384328621C480069F903084381B21A481030FFF78BF9301F47700420AA
:401DC00000F0CEF8134802212830FFF773F9E00711D0062000F0C4F80F49FF20091F88707078002802D1686B38436863094801212830FFF75FF9E0050BD53078042802D143
:401E0000052000F0ADF80348FF2101312830FFF751F9F8BD40F02E40C001002000002E4010B503212348FFF753F90120FFF75EF920483038406A204C80076178800F8900AF
:401E400001431C480C38FFF743F96078002808D0401E022181401820FFF780FAC000083800E0B82081B21548FFF732F91348032109021438FFF72CF910481149B830FFF798
:401E800027F9452189010F48FFF722F90D480321001FFFF71DF90C490C48FFF719F90B480B496038FFF714F9084801218838FFF70FF910BD70F02E40C2010020D8102E400F
:401EC00090890000041E2E40FF0F000058122E40209000000849087806280BD148780749002803D1486B400840004863C86A01221043C86270470000C001002040F02E40CE
:401F00000148007870470000C001002000B50300FFF734FC080D050D0B070507090D012000BD032000BD042000BD022000BDFF2000BD0000074A9168D26889B2064B92B261
:401F4000994204D105498A4201D1012100E000210170704780002E4033D000003FE3000010B50446FFF7D6F8072C01D9FF2C01D102480470FFF7C8F810BD0000C001002068
:401F80000149887070470000BC01002010B50A4A141D012808D009491046FFF799F808492046FFF795F810BD04491046891CFFF78FF80349491DF3E788002E4031D0000082
:401FC0003AE300000078074AFF2803D04C2804D9553803E01078087070474F380870107070470000BF01002010B50F4A002313600E4A13600E4B18600E4801600E490120F4
:4020000008600E490860000290600E490C4808600D4914300860FF381538506000F0BCF800F0CAF9002010BDE0010020C8010020F4010020F8010020E4010020D4010020E8
:4020400098110020D8010020EC010020014610B50020002910D0094B1A689C685118A14209D25868196080188A0704D08A07920F891A091D196010BD002010BDC80100200E
:40208000F8B50024164E671E321F3D463168136806E01422624310328A58521C1BD0641C9C42F6D36A1C14D02C461422544322460C3288500C214843FFF7C8FF31680028BC
:4020C00008510AD031680020103408517068401C70602846F8BD2546E4E73846F8BD0000D8010020F3B50026F64381B000281BDB1E490968884217D80299002914D01B4FD5
:40210000142204463F1D54432546396810354859401C09D0FEF7FEFF38682F1F4159C359994203DBFEF7F0FF3046FEBD214608310091465801590C20704308180C220299B0
:40214000FFF74DF90948761C001D0068C159B14200D100260549009A091D865008684159491C4151FEF7D0FF0020FEBDD4010020002803DB07490968884202D90020C043AF
:40218000704704491422091D096850431030085870470000D4010020F0B500200D4A451E0346171F50600FE014260146714314680E1DA3510C4616680834335116680834B8
:4021C00035511468401C635039688842ECD30020F0BD0000D8010020F3B50026F64381B0002841DB2349096888423DD8029900293AD0204F142204463F1D544325463968EA
:4022000010354859401C2FD0FEF784FF3868415900292BD0211D009146580C21005971430F46C1190C220298FFF7D9F811480021001D0068761C00590C34C019016041601D
:4022400081600C48001D00680159B14200D100260849009A091D865008684159491E4151FEF752FF0020FEBD3046FEBDFEF74CFFFAE70000D4010020FEB504460D4600209E
:402280001E49089E0860471E009001900290002C11D0486885420ED2002A0CD0002E0AD0642E08D808460C3001681C2068430C18207A002801D03846FEBD012022602072AE
:4022C0001846FFF7DDFE6060401C13D06681A6810A4827610C3067610179A94200D205710021684601810A462846029B00F040F82846FEBD00202072DDE70000E0010020A3
:4023000038B50124009400F039F838BDFEB50027164EFF433D4600240EE01C20316860430818017A002906D04068FFF721FF002801D0254603E0641C3079A042EDDA681C5F
:4023400012D01C2130684D434419FEF7E3FE69466068FFF741FF0546FEF7D6FE002DD9D1216868468847D5E7FEBD0000EC01002038B50024009400F001F838BD1FB5002248
:402380000C49541E0A60002811DB496888420ED808491C220C31096850430818406801A9FFF7A0FE401C02D0002004B010BD2046FBE70000E0010020F0B50021114A4D1EFD
:4023C000174611710C3F0B46BD6016E008461C2460431668041D355114680646235014680836A3551468361DA353044616680A34335318301468491C255078688142E5D3C2
:402400000020F0BDEC01002038B500210091002811DB0F49097888420DDA0D4D04010C3529680859002807D0201D0818694600F05FF9002801D0002038BDFEF76BFE2868A4
:402440000F34015D491E0155FEF75EFE009838BDFC010020F7B582B00025ED43029800240E460560002A49D0002E47D02D48D21C02402D48174601780C30006805E0220135
:402480008258002A0FD0641CE4B28C42F7D3691C3ED02C01211D40180191314600F016F900282BD101E02546F1E71F480C30016820460C300F521C480C30016820460E3029
:4024C0000E5419480C30016820460F300E543846704300F0ADF814490C310968002808510CD00024009011E00F480C30016801980818009900F017F9002802D0012005B07C
:40250000F0BD0098C019641CE4B20090B442EBD30298054905600C310879401C08710020EDE70000FCFF0000FC010020F8B50D4600216A468C461180002839DB23490978DA
:40254000884235DA214B04010C3319680A59002A2ED020460C300B5A801C0E5C184670438018954224D3854222D2002006E007465F43BF18AF4206D0401CC0B2B042F6D36B
:402580006046002814D0114E271DC8190C366A46294600F0F2F800280AD168460088012808D030682946C01900F0BDF8002803D00120F8BD0020F8BDFEF7ACFD30680F34CC
:4025C000015D491C0155FEF79FFDF3E7FC01002003460020002B06D0034A5168906852884018511A19807047FC01002070B5002400F0DCF80D4E002132460C3271600EE0CA
:40260000200113680546195013680C355953AD1C13680F3059551368641C1954E4B230788442EDD31171002070BD0000FC010020014610B5002000290CD0C91C064B8A08A0
:40264000596892005C888A18A24202D898685A60401810BD002010BDFC010020F8B5002827DB19490978884223DA174C05010C342168485900281CD028460C30085A0090D6
:4026800028460E300E5C401C0E5420682F1DC01900F064F800280CD12068002445590EE0094829460C300068C01900F03CF8002801D00120F8BD00982D18641CE4B2B442F7
:4026C000EED30020F8BD0000FC01002030B50D4604000BD0A800FFF7ABFF6060002805D000202570C0436080002030BD012030BD70B50D46040005D0002D03D00220205E67
:40270000002801DA012070BDFEF704FD0221615E60688900405828606088401E6080FEF7F3FC002070BD70B50D46040007D0002D05D002212078615E401E814201DB0120BB
:4027400070BDFEF7E7FC6088401C00B26080616880000D50FEF7D8FC002070BD10B5040009D0227800216068FEF742FE0020C0436080002010BD012010BDF0B500231D465F
:40278000002802D00224045F0AE00120F0BD46689F00F6598E4201D1012503E05B1CDBB29C42F4DA15700020F0BD0000054B11221A70054A1180064A0449116005490860E4
:4027C00070470000FC010020FE010020C811002008020020040200200148007870470000100200207CB505460024FEF709FEA8796946087000A8062229460130FEF7EFFDBE
:402800000021684604F000F90C2804D0072804D01F2804D004E0022402E0042400E0272420467CBD10B500F0BDF8FFF769FBFFF76DFB10BD10B503240BF084FD002810D178
:402840000BF028FD00280CD104F032FE002808D100F060FA002804D104F030FB002800D10024024900200870204610BD1002002070B50025044600280ED0A07901280BD884
:40288000FEF7BEFDA0790028204602D002F008FE03E002F0BDFD00E00125284670BD38B504460120002C20D0617801291DD800290BD0FF25E535FEF7A3FD2846FFF726FA00
:4028C000C0B22070072803D00EE0FF25CD35F2E70020694608706846FFF72CFB69460878012801D108202070002038BD70B504460120002C1FD06178012902D92278092A88
:4029000019D8002906D0FF25E53520780726092803D003E0FF25CD35F7E72670FEF770FD2078082808D00020FFF730FB21782846FFF7F2F9002070BD0120FFF727FB2670DC
:40294000F4E7000070B50D46040001D0002000E00548002802D0012101F0D4FF2946204602F0AEFA70BD00004C13002038B5054600200446009022466946284600F062FEE0
:402980000098002801D00BF0BFFCA878214602F0DBF8A878214602F0CAF8641CE4B2052CE9D338BD38B5FFF7ABFA224C2178012911D0062813D0032836D007280AD100204B
:4029C0006946087002460120FFF7C2F9FFF798FA0128FBD138BD20780128FCD038BD02F01BF9FFF78DFA0128FBD120780128FCD0A12424012046FFF789F901210E4A8307D1
:402A00009B0F1170022BE9D15288002AE6D001432046FFF781F92046FFF778F9410849002046FFF779F938BD02F0FAF80120FFF797FA38BDBD01002016020020F8B50646FE
:402A4000002402F03FFE0546304602F053FE00210346012632468A40174610462F401840002F03D0002801D1224394B2491CC9B20529EFD32046F8BD1CB5002069464870C8
:402A80006846FFF70CFF01AA69460A20FFF760F96946042008561CBD10B50C4601F076F9002809D00179002906D0C1788078224602F0B4FA002010BD022010BD01480078C3
:402AC00070470000181300204030C07E002800D00120704700B500F001F800BD88214843064940186030417F491CC9B24177052901D300214177C8B2704700002C130020CD
:402B000013B501F043F904000BD001F0CEFC002807D0214601AA0A310620FFF719F900201CBD02201CBD000010B50C4601F02EF900280AD001F0B9FC002806D0224604490E
:402B40000A20FFF705F9002010BD022010BD000001130020F3B581B0074601460026029802F0A8FD0446002F01D0002500E0154D002D21D0284601F03FF9032C04D139467A
:402B8000029802F0C1FD06463846029901F0CFFF032C06D0002C10D00121384601F04CFA03E03146384602F063FF284601F090FE0221284601F0A6FEFEBD3846029901F0BB
:402BC000B6FFFEBD4C13002070B50446002503F055FB002801D00C2070BD2078611C02F017FBFF2802D01F25284670BD02F064FBFF2804D02178621C01F00EFFF4E7072564
:402C0000F2E710B503F03AFB002801D00C2010BD02F0D6FA002010BD70B50D46044610210BF0B2FA1021601806460BF0ADFA334610221946204603F04DFB102130460BF0AF
:402C4000A3FA02202870204604F090F870BD70B504464078217802028006850FE0781143A67809050002090D0643084601F08EF8002812D0022D10D0032D0ED0002E08D0E5
:402C80000179092909D0002907D0214600F0A1F870BD0089002103F09EFF20460BF034FB70BD0020704770B50446002503F0E6FA002801D00C2070BD2078611C02F0A8FA42
:402CC000FF2802D002F0EAF900E01F25284670BD10B504F0F3F800F0F6F8002010BD10B5044600786178E2780843A17811430843217908436179084305D003F0B1FA002876
:402D000003D00C2010BD122010BD204602F0C8FB002010BD10B5044803F01AFB02F0C8F900F004F8002010BDE8120020F8B5114D00266E706E736E716E76AE76EE766E75E3
:402D4000AE70EE70AE712F46EE730120B03778723F2078719B20B87100F00AFA0024204601F06AFB641C2406240EF8D03E72FE71AE73F8BD2C13002070B505460E460846E6
:402D800002F0A0FC0446304602F0B4FC0121A9400A46224001400A4301D0012070BD002070BD10B50446084602F0A4FC0121A140014201D0012010BD002010BD10B5FFF7D0
:402DC0009FF8032804D101F02BFF0120FFF7C8F810BD70B5044600790D4609281CD000281AD020464030817E491C8176204601F06FFDA078FFF76EFE06460246294620463C
:402E000000F00CF8002806D1A0783146FFF79AFD28460BF079FA70BD0846FAE7F7B5054648780C468006870FC8788978000282B0014368468180284601F042FB060007D045
:402E400021462846049A00F091FB304605B0F0BD384600F039FC0746034601AA2946204600F0CAFA68468088231DC0B20090A878FF22049901F0DEFF684680883B46C2B2CF
:402E8000A878049902F088FBDFE770B5002500242846FFF7D3FD060010D03046E040C007C00F07D02146284601F035FE21462846FFF750FE641CE4B2052CEED36D1C2D06B9
:402EC0002D0EE4D070BD10B502F0F2F8FFF72EFF0BF082FA002010BDF8B5002400F081F80123012800D10124104F00203E4620360425082203E0002801D0002100E0314611
:402F00000979002907D001290BD002290BD0114681402143CCB2401C0006000EEBD07C70F8BD1C43F7E72C43F5E700002C13002010B5FFF7D1FF10BD10B50B468179194393
:402F4000817103D08078114602F0EAFA10BD10B582798A43827102D1807802F0F9FA10BD70B5FF25D53502242846FEF7CFFE0C4A9178002901D0022906D1137852789A1892
:402F8000282A01D9032402E0032900D101244105490DE00201432846FEF7BEFE70BD00001202002010B500F022F8002807D0012805D0032801D0042801D0002010BD0120A5
:402FC00010BD014610B50020C90701D000F009F810BD014610B50020C90701D000F001F810BD10B52020FEF791FE000A10BD10B51820FEF78BFE410501D5042010BD4007C7
:40300000800F10BD38B5044640060CD5684601F00DFE0220FFF78CFF072002F065F96846007801F071F9200613D5FFF7E0FF01280FD1684601F0FAFD6846007800F09AFA65
:40304000072002F051F9012001F0AAFC0220FFF76FFF38BD10B5034A0178117002F053F9002010BD1202002010B50446FFF7B9FF002801D00C2010BDA27B01211848002AD7
:40308000827801D00A4301E05208520082706279012A0FD0C17849084900C170207901280CD06188208802F051FF2080207904280BD00DE0C2780A43C270EFE7E01D02F074
:4030C000D7F90848808C208002E0E01D02F0D0F9054920798870204602F024F9002010BD2C130020D81200201202002038B50478FFF777FF844201D10C2038BD002C18D0EA
:40310000072069460870FFF74DFF012807D10121684600F08DF8012801D0092038BD6846007802F0E1F8FFF71BFF02F02BF9012010E0FFF737FF012806D1684601F076FD3B
:403140006846007800F04AFA072002F0CDF802F00DF90220FFF7ECFE002038BD10B5034A0178517002F0B4F9002010BD1202002038B568460BF05EF8002801D01F2038BDE3
:4031800001210098C90201804180002505714571857107214173857302F0C4F8009C202200212046FEF724F925702A460021601CFEF71EF9204602F0A6F8204602F088F98B
:4031C00000980BF0A1F8042200210248FEF710F9002038BD120200200346084800B5834209D8184600F0D2FD002804D00089984201D1012000BD002000BD0000FF0E0000C1
:40320000074A9179491C8906890E917138220A4092014907090E114308430249084070472C130020FF0E0000C006C00E70470000F8B507460E4600240D4803E0002C01D0C1
:40324000002500E005462979002905D0641C2406240EF3D00020F8BD204601F0EDF82E712046FFF7CDFF28813C700120F8BD00004C13002010B503F061F80222002100F0F7
:4032800003F801F0BDFE10BD10B5094B40074907000F090F185A595A40185043C0086421FDF7FCFF002800D1012080B210BD0000EA060100F7B53D20405C88B016460C46E2
:4032C000002829D030786946087200252046FFF7FBFB012800D00125204603A938300191009023460327A17E34332A46206A03F049F802A8089900900B46019120463A46BF
:4033000003A9243002F0C8FF02466846007A3070204601F07DF810460BB0F0BDFFB587B00C4605461078694608723D20005D1746002826D000262046FFF7C6FB012800D090
:403340000126204603A93830019100902346A17E34333246206A03F015F802A80090291D019120462B1D03A924300A9A02F094FF02006846007A388002D1204601F048F864
:4033800010460BB0F0BDF7B53C20405C88B015460C4600280CD0287869460872002806D000262046FFF790FB012803D003E01F200BB0F0BD0126204603A9383001910090A5
:4033C00023460327E17E34333246E06902F0DAFF02A8089900900B46019120463A4603A9243002F08BFF02466846007A2870204601F018F81046DBE7FFB505463C20405C4A
:4034000087B016460C46002810D0084601F058F801280BD0308869460883002809D000272046FFF751FB012805D005E000200BB0F0BD0220FBE70127204602A938300191A8
:4034400000902346E17E34333A46E06902F09AFF06A80090291D019120462B1D02A924300A9A02F04BFF02466846008B30806846008BA870000AE870204600F0D3FF104634
:40348000D5E770B50D460446FFF71EFB01280AD0E87AA97A00020143A07801F081FC012808D0002070BD00222421204602F098FC242070BD28214C200155204600F09AFB23
:4034C000282070BD002801D0002000E003484030C07F012800D00020704700004C1300200146002049070ED50021084B03E0002901D0002200E01A461279022A04D0491CD8
:403500000906090EF3D07047012070474C1300200146002049070ED50021084B03E0002901D0002200E01A461279022A04D0491C0906090EF3D07047012070474C13002060
:4035400010B5044680346068002803D00AF0F0FE0020606010BD4030417070474030817070474030017070470171704792001018C166704770B53C2501F02CF9040004D073
:4035800020460021433001F0C5FB2946204600F0C0FB002C02D0A07801F0AEF870BD000010B5002801D0002000E00348002802D0008903F056FB10BD4C13002010B50028FD
:4035C00001D0002000E00448002804D00179072901D100F041F810BD4C13002010B501F0F9F8002802D0807801F086F810BD00207047000070B50546008A00281ED01049AC
:403600001122897A1140C90618D5294640314A8A098A521C4A4392B2D10800D10121540801E0621A94B2A042FBD9FFF7D5F8012804D1298AA878224601F090FC70BD00009A
:40364000D812002000230B60052A04D292001018C26E0A60C366704738B5044600200090A079002814D14020015D052901D00E290ED168460AF0EEFD002809D12046009905
:4036800002F096FB03481021C28A2046FFF754FC38BD0000D812002010B50B4604460146184602F065F8002802D020460AF036FE10BD13B5044601AA11460620FEF748FBF3
:4036C0006846818861811CBD002800D10220704770470000F8B504462346401D543300909A1EA078911E01F0B0FA25464035A88A298A8000FDF7D2FD401E81B2688A88428C
:4037000003D96982A07801F096FF20460021433001F000FB8020FEF7F9FAE88102F00EFEE989891C8AB26179FFF7AEFD01F068FC02F004FE2A8A6179FFF7A6FD074601F0D3
:4037400051FC688A00280BD0FF26F1363046FEF7DDFA0321090201433046FEF7DDFA02E0002001F056FFFF206130FEF7CFFA6E8A002E0BD070431049FDF7F0FD0004000C10
:4037800001D0401C80B20D49488002E00B4800214180288A704381B2A07801F0A7FE2837B9B2204602F0D6FBE98AA07801F0F6FDA07801F0DFF9F8BD71020000160200208C
:4037C0007FB504468034616805460E46183108226846FDF704FE31462031082202A8FDF7FEFD102168460AF0CFFC6068102108300AF0CAFC60682B4608302433102269464F
:4038000002F068FD7FBD10B504460821FFF79FFB10212046FFF79BFB207905281FD006281DD008281AD12189002003F093F9072020712046FFF748F901462046403001293A
:4038400013D00E21017000210176204600F060FF2046FFF775FE2046FFF7CCFE10BD20890122002103F05AF9E1E70521EAE70000FFB581B01F4604460821FFF768FB10217D
:403880002046FFF764FB2079082803D0092804D0042203E00422012501E009220025204600F0FAFD264600204036307022712046FFF746FE0398002D02D0012808D00BE07E
:4038C00001280AD120890022029903F027F904E02189029803F03EF9012700203076012F04D0204600F014FF05B0F0BD02983073204602F0A1FA054605480121C28A2046A0
:40390000FFF71AFB002DEFD109202071ECE70000D812002070B50C460546FFF7D5F8012809D108212846FFF712FB0023012221462846FFF79DFF70BD10B5044600F0ACFD54
:403940002046FFF7FDFD00214034217010BD70B505461A24FFF7B8F8012809D108212846FFF7F5FA0023012221462846FFF780FF70BD0000F8B50446002000900E466846C5
:403980000AF068FC002801D00D20F8BD8420005908212030009D00F0F4F920460421383000F0EFF9002E02D1204600F0B3FD2946204602F08DF90E480821C28A2046FFF798
:4039C000BBFA204600F00BFF25464035002808D0204600F023F8002801D0092028700020F8BD08202870204600F072FFF7E70000D8120020014610B540310A4609780829E4
:403A000006D0092907D00A2901D100F091F810BD0B20107010BD00F001F810BD70B50446007925464035052805D0062803D008280FD00C2070BD03220621204602F0D0F98E
:403A40000D480821C28A2046FFF776FA1120287010E006202873204602F0EEF90646AA8A0A20424301212046FFF766FA002E01D109202071002070BDD812002038B50446A2
:403A80000020009068460AF0E5FB002801D00D2038BD2046009D00F08BF908202071204600F038FD2946204602F044F900213D2001550F2040210855204600F009FF0020B5
:403AC00038BD00B5024600F0E7FC10214032117000BD10B50446FEF7F7FF012809D04020005D112805D100231A4606212046FFF7BFFE10BD10B5FFF786FE10BD38B5044685
:403B00000021684600910AF0A5FB00280CD12046009902F086F905480821C28A2046FFF70BFA0D204034207038BD0000D812002038B504460021684600910AF08BFB002884
:403B400001D00D2038BD2046009902F05FF905480821C28A2046FFF7EFF90C2040342070002038BDD812002000787047F8B50025002801D0002400E01A4C002C28D02046C6
:403B800000F093FC002823D0207903281CD005281CD026464036B18AA07801F0B5FCB078012815D10021204601F0FFFD274680373868002802D00AF0BBFB3D600020B070D5
:403BC0002079072805D007E0042000E006202071F8BD2046FFF70EFD0221204600F092FEF8BD00004C13002010B54C22115400F046F810BD10B50446FF21FFF7A8F90920AB
:403C00002071A07801F0B0FC10BD000038B5FF216A461180002801D0002400E0064C002C08D011460620FEF793F8684601882046FFF73FFD38BD00004C13002010B5044681
:403C40008079002809D022214C200155FF212046FFF77DF9204600F012F810BD10B5037902464032002B03D01173092B02D003E0002100E02221117300F001F810BDFEB58F
:403C800004460089002701902781207926464036002817D0012815D002280AD112E002AA6946204601F052FD002807D100980AF035FB204601F072FD0028F0D02046FEF776
:403CC00055FEB776254680352868002802D00AF02FFB2F606868002802D00AF029FB6F60317B002902D0019800F044F8A078002100F054FF2046FFF7BDFAA07801F03AF8FA
:403D0000A07800F0F9FC0B20FFF712F900F038FCFEBD70B50E46054602F00CFB044606702846FEF7D1FE014601204140204661700C3000F0D8FF002D10D02889608028469D
:403D40004030C1782171002E10D169796171018AE180418A2181808A608107E01820FDF7D5FFC005C00F207100206080204602F09AFE70BD0A4610B50146002002F089FFE2
:403D800010BD10B509F0DCFF10BD000000B50146FFF74AFA002801D0002000E00348002802D002898A4200D0002000BD4C13002038B5044680346068002806D168460AF07F
:403DC00059FA002801D100986060606838BD000010B5014600F074FB0128887802D0FEF77DFE10BD88214843024940186030007F10BD00002C13002070B50546044640357D
:403E0000A87F012811D1A1788820084A484380186030067F3046FEF7AFFF002805D10220A877A078314601F059F870BD2C1300200EB500220A216B460292198100905A81F6
:403E40001046029B00990AF0E5FA0EBD10B50E4CE079002816D0FFF718F80C48827FC17F808B00F095FB01280CD10020E07100F0E6FE0446AC20FDF749FF010B02D0204685
:403E800000F032FA10BD0000DC1300202C13002070477047490510B5490F0B00FDF76EFC060704080C0C0F073E21FFF79DFE10BD0821FFF7D3FE10BDFFF7E1FE10BDFFF710
:403EC000BDFE10BDF8B507460025002D01D0002600E0204E00F08EFE3046403044890021418100F091FE304600F0DFFA01282CD1A00702D52846FFF739FEE00602D528466F
:403F0000FFF784FEA00602D52846FFF791FF600601D500F0F1FA200602D5284600F01CF8600702D5284600F023FA380402D52846FFF744FB780402D52846FFF731FBE007D9
:403F400003D021463046FFF7A5FF6D1C2D062D0EBBD0F8BD4C130020F8B5002801D0002400E0204C002C39D025464035A878012834D1E98AA07801F011FA2046FEF7A4FD45
:403F800001282BD002F0DAF92A8A6179FFF77CF9064601F027F82836B1B2204601F0DAFFE98AA07801F0FAF9FF206130FDF7AEFE6E8A0D4F0146002E11D0304648430B4914
:403FC000FDF7CCF90004000C01D0401C80B27880288A704381B2A07801F088FAF8BD0020F5E700004C130020160200207102000038B5002801D0002400E00D4C00200090B0
:4040000068460AF027F9002811D12046009901F03DFF607E02210843607606480421C28A2046FEF789FF0221204600F06BFC38BD4C130020D812002070B50D46124A01008B
:4040400001D0002401E014462034002C1BD0204600F036FA01280AD18820484380186030007FFEF789FE002801D101F06FFE20464030817E491B8176204600F029FC208919
:40408000294602F0A8FD70BD2C13002070B503460088FFF77BFE040013D000F006FA00280FD02079092819D02546997840352973204601F0C1FE0646A878012803D0AA8A39
:4040C00002E0022070BDEA880A20424301212046FEF732FF002E01D109202071002070BD0EB5002217216B460292198100905A810120029B00990AF08DF90EBDF8B5184E9D
:404100000024F079002820D10025AC20FDF7FEFD000B21E0204600F00DFEFDF7F7FD07462A46214600F034FA01280FD00D48012187838577C477F171002D01D0002000E042
:404140002030002801D000F0C3FBF8BDAC20FDF7DDFD000B641CE4B20028DBD1F8BD0000DC1300202C13002010B50088FFF70EFE002809D0014640310C460978082905D000
:404180000B2903D00C2010BD022010BDFFF746FC002801D009202070002010BD70B503460088FFF7F3FD040008D0254640352878082805D00B2803D00C2070BD022070BD4E
:4041C0008420005910220830991CFDF708F92046FFF7F6FA2878082804D02046FFF7A8FC002801D00A202870204600F071FB002070BD000010B50C46002121700088FFF7AD
:40420000C5FD03000BD000F050F9002807D009481121807A0840C00603D4112010BD022010BD022020701A8A1889002102F04EFD002010BDD8120020F8B50F460021009157
:404240000088FFF7A3FD040012D000F02EF900280ED0E079410641D4617E02264A07002A08DB8907402500291ADA2843E07135E00220F8BD02F05EF8002101702189418004
:40428000A1898180217E4170E189C1803E7005460178134802F080FA284602F0BAFC1DE0204600F013F9012806D0684609F0D2FF002803D00720F8BD2A20F8BDE0790099EB
:4042C0002843E071204601F0E1FD607E0421304360760448C28A2046FEF72EFE0020F8BD1D040000D81200203EB500220F236C460292238100910190628169460EC9002086
:404300000AF088F83EBD000070B5054600F062FA040027D003202071254600264035EE76E6702046FFF7D6F901F020F80920FEF7FFFDA07800F00CFD0121204600F0E2FA2A
:404340002E706E70AE7000212046FFF7E2FC0749887B401C8873A078FFF74AFE012001F037F970BD284601F0FFF870BD2C13002010B5002801D0002400E00A4C002C0FD0D4
:4043800020464030417802290AD1002141702046FEF79AFB002803D10221204600F0B2FA10BD00004C13002070B503460D460088FFF7ECFC04000BD000F077F8002807D0D5
:4043C00012481121807A0840C00603D4112070BD022070BD20464030418A008A491C41430804C10C5888884201D2122070BD20822079072802D12046FFF7FCF80220287095
:404400002089002102F08AFC002070BDD8120020016A491C016204D1817E491C4906490E81767047C169491CC16104D1C17E491C4906490EC176704770B5002506460028A7
:4044400001D0002400E0114C002C1CD0882200212046FCF7CDFFA67000202646207140363070204600F018F8204601F093F9084820820848B577807A1121084000D001209D
:404480002075012070BD002070BD00004C130020B80B0000D8120020002101628176C161C17620300177417770470079002805D0012803D0022801D0012070470020704759
:4044C0004030807F002800D00120704740300078002807D0012805D0052803D00E2801D0012070470020704710B5807801F002F9002800D0012010BD10B500F0A0FB0446B9
:40450000AC20FDF703FC010B02D02046FFF7ECFE10BD000070B5054604464035A87F002823D1FF206075A0788821144A484380186030417F8823491CC9B24177A0785843DD
:4045400080186030052901D300214177A0788821484380186030467F0677A1783046FEF70BFC002802D00120A87770BD0220A877A078314600F0B2FC70BD00002C13002096
:404580000020401C0006000EFBD0002070470000F0B515468207920F85B0C004C00E02926A469080002D01D0002400E0514C002C29D0084600F0BEFB039068468088002858
:4045C0000BD00298012845D0022843D003280CD03D20005D012872D086E00398FDF796FB01462046FFF765F87EE00020029002A809F010FE002807D03D20005D012876D12F
:404600002046FFF705FF72E06846029E8388324600210398FDF7F0FA0398FDF777FB01462046FFF746F8284600F0B0FA01AA21463046FEF73FFE002806D0304609F05AFEF4
:404640003D204C21085528E0F5773146204601F0EFF94CE0002000902789684609F0CAFD002802D0002005B0F0BD6846009E8388321D00210398FDF7BFFA0398FDF746FB94
:4046800001462046FFF715F8284600F07FFA25464035287E00280CD103E02046FFF7AAFA25E001AA21463046029BFEF737FE002806D0304609F014FE3D202873EDE710E076
:4046C0000298FFF705F8390A000101433770717068468088B070000AF0703046FFF700FD05E02046FFF794FE284600F04FFA0120B9E700004C13002010B5044A917B002972
:4047000001D0491E9173FFF797FE10BD2C130020F8B5074606464037B87F00283DD0B0788821009048431F4945186035287F0099FEF737FB012831D0287F401CC4B2052CDC
:4047400000D300240020B877FF276F772F77A87702460146009800F041FD717DFF2903D0304600F0D8FF777501F0F0FA00252F462246694630460097FEF764FF0099002908
:4047800002D03046FEF725FB641CE4B2052C00D300246D1CEDB2052DEAD3F8BD0320B877F8BD00002C13002010B502460021084B03E0002901D0002000E01846047994421D
:4047C00004D0491C0906090EF3D0002010BD00004C13002000B50120FFF7E6FF00BD10B5044601F0A7FD2189018080346168416061682831816002F0C7F910BDF7B5064656
:40480000087982B00C46092807D0A078F0770846FFF756FE012806D010E0304609F07EFD022005B0F0BDA1788820284A484380186030007FFEF7A0FA012810D0A078FEF7ED
:4048400041FE01280BD037780121304601F02BFA25462035062F36D00B2F0FD107E06846027C21463046FEF717FF0D20D9E72046FEF72AF9012801D1002028772046FFF707
:40488000A7FA054604AA21463046FEF77CFD01205F2108556946087C0090A07833463A46294600F0C7FA69460A7CA0780323294600F072FEA0782946FEF744F8304609F0B8
:4048C0002DFD0020ADE70120D7E700002C13002010B502464032937F0021002B03D1927E002A00D00121064AD279002A00D000210279092A00D10121807800F077FE10BD3E
:40490000DC13002070B50C460646FEF7DDF8002814D1012C0ED935464035A87800280DD1687802280AD03079092807D03046FFF7DBFD0446204600F086FD70BD0124F9E776
:4049400070B50D4601280BD0082808D1A8241146B020FDF7E1F929462046FDF7DDF970BD2020FAE710B501460820FDF7D5F910BD10B50446FF20F130012C01D1FF20D530CF
:40498000002200F07EFE1020FDF7C0F90349A043088001461020FDF7BFF910BD1A02002010B504461020FDF7B1F90449A043088001461020FDF7B0F910BD00001A020020F7
:4049C00010B50446012802D0082C07D102E0FF20D53001E0FF20F13000F048FE1020FDF795F904492043088001461020FDF794F910BD00001A02002010B504461020FDF726
:404A000085F904492043088001461020FDF784F910BD00001A020020F8B507460120B84085B214460E46012229467C2000F029FE32462946782000F024FE6078217800028E
:404A40000143E078A5780002054360792679000206430C2047430D2080013C182046FDF75BF9241D29462046FDF756F9201D3146FDF752F9F8BD8B00034310B5D1019120F0
:404A80001943C000FDF748F910BD000070B505460C46407829780002014341200001FDF73BF9E878A978000201430A48FDF734F960782178000201438320C000FDF72CF980
:404AC000E078A1780002014302480830FDF724F970BD00001404000070B50D46044681B201208002FDF718F9210C0448FDF714F981202946C000FDF70FF970BD040400000F
:404B000070B5054600242846FDF700F9641CA4B2102CF8D370BD10B50C460146B020FDF7FBF8FF2021462D30FDF7F6F810BD10B50C460146B020FDF7EFF8204600F0CCFDAD
:404B40000021FDF7E9F810BD70B50C46054600F005F821462846FFF7DEFF70BD10B50C460146B020FDF7D8F8FF2021462930FDF7D3F810BD10B50146B020FDF7CDF8FF20DD
:404B8000002220211D3000F07CFD10BD010210B54D310020FDF7C0F810BD000010B504020029014608D0B020FDF7B6F8214675310020FDF7B1F810BDB020FDF7ADF851203A
:404BC00000214001FDF7A8F800210348FDF7A4F821467631ECE70000240A000010B554210020FDF799F810BD10B553210020FDF793F810BD10B5034908884880FFF7D0FE36
:404C000010BD00001A02002010B502484088FFF7F3FE10BD1A02002010B5FDF75BF910BD10B552210020FDF777F810BD10B504461820FDF76BF88004400F207010BD10B5AF
:404C4000B020FDF763F8C0B210BDF8B50E4601461C461546B020FDF75FF8FF20E930FDF755F80746FF200130FDF750F83080FF200930FDF74BF82880FF200530FDF746F8F7
:404C8000208079070698490F0170F8BD10B5C820FDF73CF810BD10B50C46002812D05820FDF734F82070000A60705C20FDF72EF8A070000AE0706020FDF728F82071000AC4
:404CC000607110BDFF20C130FDF720F82070000A6070FF20C530FDF719F8A070000AE070FF20C930E8E770B504466820FDF70EF806466C20FDF70AF805467020FDF706F89A
:404D00002670310A6170A570290AE1702071000A607170BD10B50446012905D01820FCF7F5FFC00B207010BD4820FCF7EFFF8007C00FF7E70120C002704710B50C460146D5
:404D4000B020FCF7E9FF0321A0014902401810BD8821074B414310B5C918FF2260314A770A7700228A77114600F038FA10BD00002C13002088225043074A10B58018FF2167
:404D8000603041770177002181770448418EFF201D3000F06BFC10BD2C130020D812002010B50C460146B020FCF7B6FFFF202530FCF7ACFF0222214600F002F810BD0000DC
:404DC00010B50023884201D8081A03E00024E443201A4018044980B2884201D8824200D90123184610BD0000FF7F0000F8B503465078167800020643D07895780002054384
:404E000050791779000288240743002900D098241946B020FCF780FF31462046FCF77CFF201D2946FCF778FF204608303946FCF773FFF8BDFFB581B014460D4606460A9FAC
:404E4000FFF77BFF3B460021049AFCF745FF02484019845505B0F0BD1E02002070B506460D4611242520A40108214001FCF754FF2B46324600212046FCF72EFF70BD70B5B8
:404E8000212405466401FFF7AFFE10232A4600212046FCF721FF70BD10B5044640782178000201438F20C000FCF736FFE078A178000201430148FCF72FFF10BD7C04000045
:404EC00010B50C460146B020FCF726FF802021460143FF202930FCF71FFF10BD70B50D460146B020FCF718FFFF241D342046FCF70DFF01090901FF202943013001432046DF
:404F0000FCF70AFF70BDF8B500242646012807D0032802D0052808D105E002240A2604E004240C2601E004240D26492701463F013846FCF7F1FE25204001FCF7E7FEC5B227
:404F400028462042F7D0252031464001FCF7E4FE00213846FCF7E0FE2846F8BD70B50D46044601461646B020FCF7D6FE512029464001FCF7D1FE31460648FCF7CDFE0321AF
:404F800089030820FFF71CFD210275310020FCF7C3FE70BD240A000070B50D4604460146B020FCF7B9FEFF2029461930FCF7B4FE21024B310020FCF7AFFE70BD70B5491E1F
:404FC0008CB205460146B020FCF7A6FEFF2021461930FCF7A1FE29024C310020FCF79CFE70BD0000054910B5884200D908460146FF206130FCF790FE10BD0000FF0F000040
:40500000054910B5884200D908460146FF206530FCF782FE10BD0000FF0F000070B588251446002900D098250146B020FCF774FE2846FCF76BFE2070000A6070281DFCF759
:4050400065FEA070000AE07028460830FCF75EFE2071000A607170BD10B51446024611200B4680010021FCF723FE012C01D1FFF7B5FD10BD10B504460920C001FCF746FE92
:405080002070000A60700448FCF740FEA070000AE070FFF7A3FD10BD840400000121814010B589B200227C2000F0EBFA10BD000070B5FF210120FFF75BFCFF210820FFF780
:4050C00057FC3020FFF76CFC80210020FCF724FE002211460320FCF73BFE374DFF20A98DD530FCF719FE0024FF26F1362146B020FCF712FE298F3046FCF70EFE2046FFF7F6
:4051000039FE641C2406240EF0D0FF20A98FF930FCF702FE28481030044600F079F9204600F0BEF900F04CF8234CB82040346188FCF7F2FDA188BC20FCF7EEFDE188C420D6
:40514000FCF7EAFDFF20698EE130FCF7E5FDA12000210001FCF7E0FD3920FFF74DFCFFF743FD93200721C000FCF7D6FDFFF736FDE020FFF7C5FCE820FFF7C2FCF020FFF7D5
:40518000BFFC0020FEF776F8618A0C48FCF7C4FD0A482821001DFCF7BFFDFF210131AC20FCF7BAFD832000218000FCF7B5FD5B210020FCF7B1FD70BDD8120020140A000014
:4051C00010B500217C20FCF7A7FD00217820FCF7A3FD74210020FCF79FFD10BD70B50D4601461446B020FCF797FDFF261D363046FCF78CFD01090901FF20294301308143CB
:40520000002C01D1102041403046FCF785FD70BDF3B589B0FF2001900D208001009048780D7800020543C8788E780002064348790979000201437C200791FCF767FD06900E
:405240007820FCF763FD059074210020FCF764FD18480024049026E00120A04087B20098FCF754FD03900098FCF750FD02900098FCF74CFD039A29465140029A7240114361
:40528000079A424011430BD10698074208D00598E040C1070998C90F814201D1019405E0641C0498E4B20078A042D5D801980BB0F0BD00001813002070B5FF257C20FCF7F2
:4052C00025FD0849002401230A7805E01946A140014205D0641CE4B2A242F7D8284670BD2546FBE71813002010B504461820FCF70DFD0721C90288436107890C01431820BD
:40530000FCF70AFD10BD10B50446E020FFF7F8FB20782246401CC3B20021E020FCF788FC10BD000010B5044641790079042817D040000843A17B032901D8C9000843617B87
:405340004A010243A079010207201143C00201431820FCF7E1FC21881C20FCF7DDFC10BD08460149E5E700000204000010B5012000F02EF90120FFF713FB41210020FCF779
:40538000CBFC10BD10B5002000F022F90120FFF733FB40210020FCF7BFFC10BD10B50C460146B020FCF7B8FCFF2021460D30FCF7B3FC10BD70B50C4601461E461546B020D4
:4053C000FCF7AAFCE92021468000FCF7A5FC75202946C000FCF7A0FCEB2031468000FCF79BFC6C433B20A1B20001FCF795FC70BD70B50C4601461546B020FCF78DFC2146D6
:405400008420FCF789FC29468020FCF785FC70BD10B504464078217800020143FF20C130FCF77AFCE078A17800020143FF20C530FCF772FC6079217900020143FF20C93084
:40544000FCF76AFC10BD70B5A124054624012046FCF75CFC012D07D041084900814202D02046FCF759FC70BD014601221143F5E710B5044640782178000201436820FCF739
:405480004BFCE078A178000201436C20FCF744FC60792179000201437020FCF73DFC10BD10B5044640782178000201435820FCF733FCE078A178000201435C20FCF72CFC5F
:4054C00060792179000201436020FCF725FC10BD10B50446E820FFF713FB20782246401CC3B20021E820FCF7A3FB10BD10B50C460146B020FCF710FC21460248FCF70CFC46
:4055000010BD00001C0A000010B50C460146B020FCF702FCFF2021460530FCF7FDFB10BD70B5054688000521FBF7B8FE84B22946B020FCF7F1FB21460448FCF7EDFB290213
:4055400072310020FCF7E8FB70BD0000040A000010B504460146B020FCF7DEFB210273310020FCF7D9FB10BD10B504460146B020FCF7D2FB210270310020FCF7CDFB10BD98
:4055800010B504460146B020FCF7C6FB210271310020FCF7C1FB10BDF8B505461E4614460F46084600F098F800902802A1000843304304462946B020FCF7AEFB214600989A
:4055C000FCF7AAFB0148C0194655F8BD2302002010B50446B820FCF799FB8005800DA102014389B2B820FCF797FB10BD70B50D460146B020FCF790FBFF241D342046FCF7B6
:4056000085FB40218843A90101432046FCF784FB70BD70B5A124054624012046FCF776FB0222002D01D0104300E0904301462046FCF772FB70BD70B50D460146B020FCF7C3
:405640006BFBFF2029460930FCF766FBA12424012046FCF75BFB0222002D01D0104300E0904301462046FCF757FB70BD70B50C460546FCF74BFB204301462846FCF74CFB7C
:4056800070BDF8B516460D460746FCF73FFB014600202C0003D104E06408401C80B2E207FAD08640A9430E43B1B23846FCF734FBF8BD0000024A1018405C8007800F704757
:4056C0002302002010B50146B020FCF725FBFF202D30FCF71BFB10BD8000FF30413070470246FF20052902D201484018805C70471E02002010B50146B020FCF70DFBFF207A
:405700002930FCF703FB10BD0A4600B501461046FFF7E6FF00BD38B50C46054600216846009108F097FD002804D1009928464C7000F09EFB38BD10B5044680780021FFF746
:405740002DFE01212046FFF7DDF810BD436E002B0CD00B60014660318B781370826E4266CA788A700021816608467047FF20704710B50346446E6033002C04D0846E002C35
:4057800004D0FF2010BD41669A7001E08166DA70002010BD0021416681667047406E002801D000207047FF20704770B50446C0790D46810610D5DF210840E07100F0BAFD18
:4057C0000570218941804034218A8180618AC180A18A018101F03AF970BD000010B50446FEF76EFE01280AD1A1788820054A484380186030007FFDF7BFFA012801D000F032
:40580000A5FA10BD2C13002070B50D460446FDF75BF901281CD02079042801D0072816D1E879AE7900020643A0783146FFF7B8FA012813D03246691C204600F035FA022117
:405840002046FDF788FE01212046FFF75BF870BD01222421204600F0C3FA70BD28214C2001552046FEF7C6F970BD70B50D460646FDF707FE002847D120213046FDF767FB46
:405880003446687840346073E87820220002E081A9780843E0816879010228790843218A814203D0F1791143F1712082E8790102A8790843618A814203D0F1791143F17131
:4058C0006082687A0102287A0843A18AE180814203D0F1791143F171A082A08A218A8000FBF7DCFC401E618A80B2814200D9608201213046FDF732FEE87AA97A00020143F1
:405900000022304600F0DCFA70BD0000F8B50C460546FDF7D9F8012849D0294EB07AC00709D02846403000900078002805D0102805D01F212EE01A212CE0002700E0012796
:405940002846FEF735FA002823D02E4680360822611C7068FBF743FD7068617A20300172A17A417270682146183008220B31FBF736FD21462846042213313430FBF72FFD88
:4059800039462846FDF7F6FF002810D1002F0FD012E007210322284600F022FAF28A08212846FDF7C9FA11212846FDF7DAFDF8BD06212846FDF7D8FD009801210176F8BD13
:4059C000D812002010B5FEF715F810BD38B504460020009020790D46042801D007281BD12046FDF771F8012817D0684608F032FC002811D10C486A78807A00991040112221
:405A000010402075607E082210436076204600F079F92046FDF7EBFD38BD08222421204600F0DEF938BD0000D81200207047000070B506460D460846FEF796F804463046AA
:405A4000FEF733FD00280CD0142C04D32946304600F0C7F805E00549A0000A58294630469047284608F046FC70BD0000FC06010070B50D460021002801D0002400E00C4C9B
:405A8000002C14D020464030C177807F032802D12046FEF73DFE2046FFF7A0FE142D04D20449A800095820468847FEF769FD70BD4C1300204C07010010B5014640310C466F
:405AC00009780E2903D1FDF7D9FF0120207610BD10B54021095C0F2901D1FDF7F2FF10BD4021095C0F2902D1002120304177704738B5044600220E4800920D46807A112112
:405B00000840C0060ED52046FEF7E0FC012809D0684608F09FFB002803D12046009900F053F938BD2946204600F05BF838BD0000D812002010B51021FDF709FA10BD10B539
:405B40004978FDF7E7FE10BD10B5FDF7C2FF10BD012120304177704710B54021095C0C2901D1FDF7CBFF10BD10B54021095C0D2901D1FDF7BFFF10BD70B5044600790D462C
:405B8000052803D0062801D0082802D12046FDF7D3FE68784C21085509212046FDF7E4FC2046FFF7C8FD2046FCF78EFF0128A07805D0FFF7D9FC2046FEF78AFE70BDFFF7BC
:405BC000DFFCF8E710B50446FF21FDF7C0F916214C200155A078FFF7C7FC2046FEF778FE10BD70B50C460546FEF76AFC002802D02078687570BD21782846FFF78CFD70BD3B
:405C000070B5054648780C46032802D12846FDF79EFE6078122803D110212846FDF797F970BD704738B5044600200D46009004212046FDF78CF968782076E8780002A081C2
:405C4000A9780843A08168790002E08129790843E081607E04210843607680070CD4684608F0F8FA00281CD12046009900F00EF9607E022108436076E079410611D5BF214F
:405C80000840E07100F056FB00210090017021894180A1898180217E4170E189C18000F0B8FF38BD7047704770B50446C07815460A4600280AD00020E070C1B2A078FFF708
:405CC00095F8A0782946FFF767F970BD0120F3E770B50546042008700C468420415908222031601CFBF77BFB29462046042238310930FBF774FB0D2229462046FEF77EFDA5
:405D0000002070BD70B5054609200C46087008220021601CFBF76CFB287D607004480922C07AA07029462046FEF768FD002070BDD81200200B4610B501460B2018700122A4
:405D40001846FEF75BFD002010BD0000FEB50024164F03E0002C01D0002500E03D462846FFF71CFD00281BD15F20405D002817D16A4601A92846FFF7E9FC002810D10198E5
:405D800069460A7806782946FEF738FD022E07D1A8780121FFF72AFC09212846FDF7E4FB641C2406240ED5D0FEBD00004C13002010B50B46122119708178D977014601228A
:405DC0001846FEF71BFD10BD10B50B46132119708178D977014601221846FEF70FFD10BD38B50546002000900C46684608F032FA002801D0072038BD00980D2101704470AD
:405E000002222946FEF7FAFC002038BD0B4610B501460520187001221846FEF7EFFC002010BD0B4610B501460620187001221846FEF7E4FC002010BD38B505460020009041
:405E4000684608F007FA002801D01F2038BD009C022020704C20405D6070A878E0772846FFF769FC022229462046FEF7C7FC38BD10B50B46072119708178D97701460222C6
:405E80001846FEF7BBFC002010BD000010B50B460A49044608880C221A704A795A709870000AD870C8881871000A5871062221461846FEF7A3FC002010BD0000D8120020E5
:405EC000F8B50446403417460E460546E289617B8078FFF78DFA002F0DD100F02FFAE2896979FDF7D1F9FFF78BF8608A002800D00120FFF78EFBE388A08A984200D90346C2
:405F0000628A218AA878FFF755FAA08A218AC000FBF7C4F981B2ED208000FBF7FDFEE089E188C0080A30081881B21920C001814200D90146A878FFF7E7FAA8783146FFF7EC
:405F40003DF801212846FEF7DDFCF8BD00B500F01FF800BD10B50A4604460B491046FBF79DF94034C01C218A80B2814200D208464900081A81B20548E182C089002802D02E
:405F8000884200D2E08210BD710200001813002040184008704770B505460C46000702D5A0B2FDF78FFFE80702D0200EFDF72AF870BD70B5054650C8FCF7F4FCFBF7DEFC24
:405FC0002889C01F0300FBF7D9FB0C07130B171A1D0B0B200B100C0BA0B23146FFF7DBFF70BD204600F044FB70BDFDF72FFF70BD2046FCF72CFE70BDFCF747FF70BDFDF780
:4060000047FF70BDFDF745FF70BDE0B2FEF776F870BD0000F3B5002483B0064627460094019408200294FBF771FE05460640400713D55020FBF76AFEC0B20090700707D587
:40604000009CA00803D1FBF7FFFC012800D10127002204200099FEF773FC28074ED5A820FBF754FE0146654842890A434281002208200091FEF764FC300739D50098044335
:4060800040062CD5FF200930FBF740FEFF201D30FBF73CFE8006C00F0190FF200930FBF735FE00281BD00198002818D1544801214170FF20F130FBF729FE03210902884397
:4060C0000146FF20F130FBF727FEA1200001FBF71DFE02210143A1200001FBF71DFE00981021884303D1FBF7AFFC012800D101270098C00602D50220FBF742FFA8070CD5BC
:406100003820FBF703FEC1B2B00702D508040443012700220220FEF713FCE8071DD02020FBF7F4FDC0B20090F0070BD000980221000604430098884303D1FBF785FC0128A2
:4061400000D101270098800702D50220FBF718FF002201200099FEF7F3FBE80605D50120FBF7FEFE1020FEF7FDFBA8062AD5FEF78DFD244908800120FBF7F2FE22490020A3
:40618000087022490870FF200930FBF7BFFD0090FF201D30FBF7BAFD80060099C00F00290DD000280BD116494870A1200001FBF7ADFD02210143A1200001FBF7ADFD202067
:4061C000FEF7D0FB680602D54020FEF7CBFB0720694608810020009601944881002F07D069460EC90498002804D0002008F0EEF805B0F0BD002008F00DF9F9E78C130020CB
:406200001602002028020020BD01002011020020F0B587B0054605A81E461746019100900C9C04AB06AA02A903A800F0C6F82846FEF725FE21463046FEF710FE6846017A7A
:406240000398FEF749FC05A904A8FEF71FFC6846027E21463846FEF70EFC07B0F0BD000070B50548C4782046FCF7ABFE05462046FDF736F9284370BD2C13002070B505487C
:4062800084782046FCF7A5FE05462046FDF740F9284370BD2C130020F8B5069E1F463478231FDDB23B460095FFF7B2FF3819001FFEF7F2FD0520FEF726FE044601222946B3
:4062C0000798FEF7C9FE3570E00701D00020F8BD1F20F8BD70B51C4615460E46FEF7CFFD29463046FEF7BAFD0320FEF70CFE012229462046FEF7B0FE1F2070BDF8B5069D1C
:40630000079E2C780094FFF783FF0120FEF7FBFD0746002221463046FEF79EFE3019FEF7A9FE241D2C70F80701D00020F8BD1F20F8BD000000487047E813002008B56A463B
:4063400000210B20FBF704FD6846007808BD000010B50B4C094923460833A160002142189278002A00D05A54491CC9B20429F6D3FF21A0689A314843A06010BD0403020188
:406380002C13002070B5059C049D2070060A6670060CA670000EE0704806D101400E0843207104221946601DFBF719F82046042229460930FBF713F870BDF8B5079C0E46CA
:4063C000E178069D09020160A77839430902016067783943090201602778394301602079611D4006400E30702079C009107004221846FAF7F4FF2146042209312846FAF730
:40640000EEFFF8BD10B5FEF741FC084A916848408108C3084409414063405940C30F59404008C9070843906010BD00002C13002010B5012200F016F810BD000010B50548E3
:4064400002780121002A017002D10120FBF740F9002010BD2C02002010B5002200F002F810BD0000F8B5204D0F4629781646012904D02978022901D01120F8BD0C21484348
:406480001A494418E078A178884201D31220F8BDFAF740FE62780C2361685A4351188CCF8CC1E178601C491CE1706178491CC9B20170A278914201D1002101706868401C46
:4064C00068602878012803D0FAF71EFE0020F8BD02202870FAF718FE002E03D00020FBF7F7F8F3E70120FAE72C0200206815002010B51148002101704160C0220F48FAF751
:4065000077FF0E4890220021C030FAF771FF182200210B48FAF76CFF0948102181700C21817306494160C03101610649816006494161FBF7B5F810BD2C0200201814002063
:4065400068150020B35F0000F5740000F8B50025114C01262F462078002811D001280FD0022802D0032813D111E000F017F8FAF7D1FD6068002800D12670FAF7C5FD07E0E4
:406580002078002806D02078012803D000E02770002DE0D00020F8BD2C020020FEB51F4D1F4E0027FF2400200C2141438919C978002901D0044602E0401C0228F4D3FF2C12
:4065C0002AD0FAF7A7FD0C204443A41921780C2260685143081801460EC9029301920091076047608760E078401EE0702078401CC0B22070A178884200D12770686800284E
:4066000002D06868401E6860FAF77EFDA1680029C8D068468847C5E7FEBD00002C0200206815002010B5830A082B02D007F0F8FE10BD00F0CFF810BD10B50C460146207802
:4066400000F042FC0028204603D000F005FF002010BD00F0B8FB1F2010BD10B5820A082A02D007F08BFF10BD00F056F910BD0000F8B50446407825780002054300206946E7
:4066800008702846FFF7E9FF012827D16946A0780978884222D01C498D4208D0891D8D4205D0C91C8D4202D0C91C8D4204D11221284600F071F80CE00022022805D32079E9
:4066C000E178000201430A05120D12212846FFF7A9FF204607F0E6FD1220F8BD0B4EA80A08282A4631460AD0E01C07F091FF204607F0D8FD3146284600F00AF8F8BDE01C2E
:4067000000F018F9F3E700000D20000080150020F8B50D4604460020694608701A48844208D0801D844205D0C01C844202D0C01C844201D101200870A00A08280A462946B9
:40674000204609D007F0B6FF064668460078002805D0012815D110E000F006F9F4E70022002D05D068782978000201430A05120D31462046FFF756FF03E03146204600F005
:406780000BF83046F8BD00000D2000000148407A70470000DC130020F8B5054600200E4600906946082000F007FB002801D00720F8BD009C0F202070A670FFF7E7FFE0707E
:4067C0002571280A6071042060702146FF20FFF733FFF8BDF7B5064682B000204B4A4C4B00900420B11AF718964218D008DC002F0FD0012F0FD0052F0FD00D2F12D10CE0C6
:40680000032908D005290CD006290AD0072909D101E0072006E00C2004E0052002E00B2000E006206946001D00F0C6FA002802D0072005B0F0BD009D31462846039A00F0F3
:4068400085F8334804241338301803D0052801D0062805D10499A9710499090AE9710624039800284BD12949891F701A8E4227D006DC002F0BD0012F11D0052F3FD11CE01E
:40688000062823D009282CD00D2838D12FE028191B2181700021C170A41C042012E02E19B01C08220021FAF7A3FD1A481122817A1140B170C07AF07020E0FCF7DDF801E073
:4068C000FCF7FCF829198870641C18E02919891C0498FCF7E1F8002801D068710FE0641D0DE02819801C082107F02AFA06E009492819801C08221C31FAF771FD08346C705D
:406900002946FF20FFF798FE93E7000015200000FEDFFFFFD8120020C0B21F2806D8401E034AC0B2105C0870012070470020704710090100D2B21F2A05D8034B9200D218D4
:40694000403AD26B104770471808010070B504460E2016460D462070FFF718FFA070E570280A2071667170BD70B50D46C1B2012014461F2911D88E00084821463018403880
:40698000C26B28469047002807D104482146F83830184038C26B2846904770BD9408010070B5154C0546212200212046FAF720FD212212492046FAF712FD114A1121907A42
:4069C0000840C3060F48017802D53023194301E0CF2319400170907AC007207F02D00721084301E0C008C0002077212221462846FAF7F5FC70BD0000E81300202F09010063
:406A0000D81200200814002010B5FCF7DDF810BD10B5FCF7F6F810BD002070470120704710B5FCF73EF910BD0020704710B5FCF73AF910BD024900784871002070470000F6
:406A4000DC13002010B5FCF74AF910BD38B504460020009069460E2000F0AEF9002801D0072038BD00993E200870032088702078C870A07808716088000A487120798871A7
:406A8000A088000AC871A0790872E088000A4872207A88722089000AC8720A2048700320FFF7CAFD38BD38B50546002000906946172000F081F9002801D0072038BD009C8B
:406AC0003E2020700120A0702878E070A878207168882946000A60716878A0712879E0712046083006220C31FAF779FCA879A073E8882146000AE073287A20742889000AF7
:406B00006074A87AA0746889000AE07468792075132060700120FFF78FFD38BDF8B5044600200E46009015466946082000F044F9002801D00020F8BD0099082008708E708C
:406B4000CC70200A08714D7104204870FF20FFF773FDF8BD38B50C460021054600916946072000F029F9002801D0002038BD0099302008708D70CC70200A08710320487018
:406B8000FF20FFF759FD38BD38B50546002000906946112000F010F9002801D0002038BD009C3E2020700520A0702878E07028880822000A2071601D6968FAF710FCA96826
:406BC0000D200A7862734978A173607021460520FFF732FD38BD38B5054600200C4600906946092000F0E8F8002801D0002038BD00991320087001208870CD70280A087191
:406C00004C71200A887105204870FF20FFF714FD38BD38B504460020009069460C2000F0CBF8002801D0002038BD00990C20087020788870A078C8706088000A0871607899
:406C4000487120798871A088000AC871A0790872E088000A487208204870FF20FFF7ECFC38BD38B50446002000906946062000F0A3F8002801D0072038BD009957200870E9
:406C80008C70200AC87002204870FF20FFF7D4FC38BDF8B5064600200C46009015466946082000F089F8002801D00020F8BD0099052008708E70CC70200A08714D71042061
:406CC0004870FF20FFF7B8FCF8BD0000FEB507460020009010480E46019015466946082000F06AF8002801D00720FEBD009C324620460199FFF72AFEA771380AE07106200F
:406D0000002E03D1290A25726172082060702146FF20FFF791FCFEBD7B0C0000F8B5054600200E4600900C4F6946062000F044F8002801D00720F8BD009C3246394620464B
:406D4000FFF704FEA571280AE071062060702146FF20FFF771FCF8BD7C0C000010B5FDF703FA10BD10B5FDF719FA10BDF8B505460020074600900D4E6946142000F01CF813
:406D8000002801D00720F8BD009C3A4631462046FFF7DCFD1022A01DA918FAF720FB142060702146FF20FFF747FCF8BD1720000010B5FBF731FF10BD0A4610B5C1B2104639
:406DC00007F000FA10BD10B507F076FA10BD0000F8B50546C078AF78164C00020743A07D26468000203E8019103004222946FAF7F6FAA07DB38E800082191032291D042BF1
:406E000016D03550A07D0023400080190784A57D204610302B54A07D401CC0B2A075042800D3A375B08E401CB086104600F005FBF8BD0000C4150020FEB5144C0025E17D8B
:406E4000204610300D54E07D26468000203E305807F046FAE07D401CC0B2E075042800D3E575B08E401EB0860948C07900280CD00095019511206A460295108155812946F3
:406E80000A460020029B07F0C5FAFEBDC4150020DC13002010B5074900208875C8752039888605490872487288728882FAF79AFD10BD0000C41500201C16002010B5FFF795
:406EC000E9FF002010BD00001B4B10289A792DD00CDC0C2823D004DC05281ED0082829D124E00E2824D00F2824D121E0302818D004DC13281CD01A281CD114E03E2802D0DE
:406F0000572817D111E0500614D5491E012088405979C0B201420BD10CE0012006E0802004E0202002E0022000E00420024201D00120704700207047DC13002010B50B465F
:406F40000178401C197001460622581CFAF747FA10BD034610B5084608221946FAF73FFA10BD704770477047427812020A8003781A430A8080788870704770B50D460446AD
:406F8000014610222846FAF72AFA214610221031A818FAF724FA70BD427812020A80007802430A80704710B50B4641780A021A800178801C0A431A8001461022981CFAF71A
:406FC0000EFA10BD427812020A80007802430A807047427812020A80007802430A8070477047427812020A80007802430A807047427812020A8003781A430A808078887059
:407000007047007808707047427812020A80007802430A80704710B50B460178401C197001460622581CFAF7DAF910BD10B502780B460A701F2A03D8411C581CFAF7CFF9FC
:4070400010BD00780870704770B5054640780C46000208802978062208432080E87800026080A978084360802879207168796071A879A071E91DE01DFAF7B1F9687B6073EC
:40708000A87BA07370BD0022835C0B70521C491CD2B2082AF8D370477047034610B5084606221946FAF79BF910BD7047704710B502780B460A701F2A03D8411C581CFAF79C
:4070C0008EF910BD70B5054640780C46000208802978082208432080A91C201DFAF77FF9E87A102200026080A97A08436080294620460C310C30FAF772F970BD02780A7088
:4071000042784A70807888707047427812020A8003781A430A80C27812024A80807802434A80704710B504460088FCF755F8002808D0A07814280DD006DC05280AD0132878
:4071400006D107E0022010BD1A2803D03B2801D0122010BD002010BD0078012801D9122070470020704700207047002070470020704710B50088FCF72FF8002801D00020ED
:4071800010BD022010BD10B50088FCF725F8002801D0002010BD022010BD10B50088FCF71BF8002801D0002010BD022010BD002070470078272801D9122070470020704781
:4071C0000078012801D9122070470020704710B5017902884388042921D8012914D09A421DD80124A403A34219D8A02A03D2022915D0032913D0202A11D3817B03290ED81F
:40720000012901D0042902D18179012907D84179012904D8407B410701D0C00800D0122010BD00781F2801D9122070470020704701784A0941785201114382780A43C17820
