:400000000040002011000000550700005507000080B500AF00F0A2FB80B584B000AF021CFB1D1A70204A3B1C0B3312781A701F4A3B1C0A3312781A700423013BFB6018E074
:400040001B4B1868391C0B31FA68131C5B009B18C3185B780B70164B1868391C0A31FA68131C5B009B18C3189B780B70FB68013BFB60FB68002B0ADB0D4B1968FA68131CF1
:400080005B009B185B5CFA1D12789A42D8D9094B3A1C0B3212781A60074B3A1C0A3212781A60BD4604B080BDCCF1FF0FCDF1FF0FD80000201CFF0B4020FF0B4080B500AF43
:4000C000294B12221A600C20FFF7A6FF274B0C221A60052001F014FC254B264A1278D2B21A60052001F034FF01F0C4FCFA235B00181C01F009FF012001F0CCFC1E4B1F4A24
:400100001A601F4B8022D2051A601E4B1E4A1A601E4B1E4A126808218A431A60FA23DB00181C01F061FC1A4B181C01F011FF194BB02212011A60184B184A1A60184BC02287
:4001400092001A60144B174A1A60174BA62212061A60164B41221A60154B40221A60024B00221A60BD4680BD300010402CFF0B4028FF0B40D9F1FF0F04010B4006000080C4
:400180000C020B407C002E406A2D00006CF02E40DC050000040301400000014041FF00800003014040FF008008010B401C0101401801014080B582B000AF72B6444B002273
:4001C0001A60FB1D00221A7023E0FB1D1A78131C5B009B185B003F4A9B183B603B681A78597809020A43997809040A43DB781B0613431A1C3B6819795B791B020B439BB21B
:40020000101C191C00F02EFBFB1D1A78FB1D01321A70FB1D1B78012BD7D92F4A2F4B101C191C00F02FFB2E4B08221A602D4B03221A602D4B01221A602C4B06221A602C4BF7
:4002400081221A602B4B8022D2031A602A4B802212021A60294B01221A60294BC1221A60284B294A1A60294B992212041A60284B284A1A60284B802212061A60274B992221
:4002800012041A60264B802292021A60254B254A1278D2B202210A43D2B21A70224B224A1278D2B20C218A43D2B204210A43D2B21A701C4B1B4A1278D2B216210A43D2B25B
:4002C0001A70FFF7FBFE00F01DFBBD4602B080BD6CF02E4004170100101701001C1701000000024000030240000004400800044000020440080204400C02044018020440EE
:4003000000030440080304400600D80000500F4020500F400400990024500F4030500F4038500F4000700F4001700F4010B5064C2378002B07D1054B002B02D0044800E038
:4003400000BF0123237010BDF003002000000000BC16010008B5084B002B03D00748084900E000BF07480368002B03D0064B002B00D0984708BDC04600000000BC16010086
:40038000F4030020C80000200000000080B500AF012000F07DFB012000F0B8FB62B601F0E5F801F0F5F801F0B5FE064B181C00F069FD054B181C00F0E9FB00F09DF9BD46E9
:4003C00080BDC0462D060000F505000090B583B000AF01F09FFEFFF7D9FF01F067FA00F085F801F037FA00F0ABF9021C354B1A60354B1B78022B15D1344B1B78002B11D138
:40040000304B1A68324B1B68D21A324B9A4209D9314B1A78314B101C191C09F02BFA2B4B01221A70274B1A682D4B1B68D21A2D4B9A4206D900F0B2F8224B1A68284B1A60E8
:400440001FE01EE002F076F8FC1D01F062FA031C237003F013FB031C042B04D003F00EFB031C062B01D101F0A1FD03F007FB031C022B01D001F080FDFB1D1B78181C01F0E7
:400480004CFA00F05DF9021C0E4B1B689A42D9D0154B1B78002B14D000F03CFD00F082FA00F098FA012000F0F3FA012000F02EFB002000F013FB002000F04CFB01F0ACFDD1
:4004C0008BE78AE70C0400203025002028040020240400208813000034250020CC00002010040020E70300002104002090B583B000AF00237B6001F059F9022001F064F9A5
:40050000BC1C002001F084F9031C2380BB1C00215A5ED423DB009A422EDD1A4B1B78002B26D0194B1B78002B08D0174B00221A7000F006F9021C154B1A6019E000F000F940
:40054000021C134B1A60124B1A68104B1B68D31A7B607B68002B07D00E48796801F0F0FE031CDAB20C4B1A70094B1A68074B1A60044B00221A7002E0024B01221A70BD46FD
:4005800003B090BDD4000020D5000020180400201C04002060EA00001404002090B583B000AF114B1B78002B1BD03B1D002002211A1C00F0F7FA0D4B1A783B1D5A700C4B13
:4005C0003C1D1A785B781B021A4300231204120C1B0C1B041343181C00210222231C00F02FFBBD4603B090BD20040020140400203425002080B582B000AF786039607B689C
:400600006622FF32934204D0B3225200934204D007E0054B01221A7003E0034B00221A70C046BD4602B080BD2004002080B582B000AF786039607B68282B1CD004D8012BDA
:4006400009D0262B0ED039E0422B27D0712B29D0412B17D032E0002000F06AFC002000F017FA2BE0174B1B78042B03D1164B01221A7023E022E0144B01221A70134B0022C2
:400680001A701BE000F05CF8021C114B1A60012000F0FEF9002000F039FA0FE00D4B00221A700BE03B681B88002B03D1074B02221A7002E0054B03221A70C046BD4602B073
:4006C00080BDC046302500202104002028040020240400202004002080B500AF054B1B681A1C0A32034B1A60042001F03DFBBD4680BDC0462C04002080B500AF0F4B0820EB
:40070000191C01F067FB01F00FFA0020012101F049FA0020012101F075FA4023FF330020191C01F0D9FA012001F0A4FA082001F0CBFB01F0CFF9BD4680BDC046D906000004
:4007400080B500AF024B1B68181CBD4680BDC0462C04002080B500AFFEE7C04680B586B000AF224B7B61224B3B61204B7B6135E03B691B68FB603B695B68BB603B699B68B9
:400780003B6000237B600CE0FB681A68BB681A60BB680433BB60FB680433FB607B6804337B607A683B689A42EED13B69DB683B6000237B6008E0BB6800221A60BB68043332
:4007C000BB607B6804337B607A683B689A42F2D13B6910333B617B69013B7B617B69002BC6D101F05DFEFFF7F1FDFEE701000000A41B010080B582B000AF154B144A12687C
:4008000001218A431A6000237B600FE07B68032B04D8104B7A689200D35800E00E4B0F4A796889008B507B6801337B607B682F2BECD9FFF7BFFC0A4B00221A60044B044A71
:40084000126801210A431A60BD4602B080BDC04600001040000000005507000000000020C000002080B582B000AF786039607A683B68101C00211A1C01F050FEBD4602B0EE
:4008800080BDC04680B586B000AF7860396000233B6100237B612EE07B699B007A68D3181B68BB603B1C0F33BA681A70BB68FF229343BB6017E03B695B003A68D3181B7824
:4008C0001A1CBB68D3183A69520039688A1852781A703B6901333B613B1C0F331A783B1C0F33013A1A703B1C0F331B78002BE2D17B6901337B617B69022BCDD9BD4606B0BD
:4009000080BDC04680B500AF0E4B802212061A600D4B03221A600D4B0D4A1A600D4B03221A600D4B802212051A600C4B8022D2031A600B4B00221A60012000F013F8BD4608
:4009400080BDC046000030403000304080003040044004003000314000003A4000033A40000E3F4080B584B000AF021CFB1D1A700B4B1B68FB60FB1D1B78002B05D0FB68AD
:40098000802212061343FB6003E0FB685B005B08FB60034BFA681A60BD4604B080BDC04680033A4080B582B000AF094B1B68DAB2FB1D7F218A431A70054BFA1D12781A6059
:4009C000FB1D1B78DB09DBB2181CBD4602B080BD1002044080B500AF00F050F8054B181C00F00EF8032000F017F800F03DF8BD4680BDC046F909000080B500AFBD4680BD16
:400A000080B582B000AF7860024B7A689A64BD4602B080BD0000002090B585B000AF021CFB1D1A701623FB603C1C0B3400F071FF031C23700A4B0A4A11680A4A1140FA1D85
:400A40001078FA68041C9440221C0A431A603B1C0B331B78181C00F060FFBD4605B090BD00E400E0FFFF3FFF80B500AF024B04221A60BD4680BDC04600E100E080B500AF27
:400A8000024B04221A60BD4680BDC04680E100E080B584B000AF021CFB1D1A700E4B1B68DAB23B1C0F3340218A431A70FB1D1B789B01DAB240231340D9B23B1C0F333A1C2E
:400AC0000F3212780A431A70034B3A1C0F3212781A60BD4604B080BD0003044080B582B000AF021CFB1D1A70064B064A1168064A1140FA1D127892040A431A60BD4602B0EC
:400B000080BDC04608030440FFFFE3FF80B584B000AF021CFB1D1A700D4B1B68D9B23B1C0F337F220A401A70FB1D1B78DB01D9B23B1C0F333A1C0F3212780A431A70044B05
:400B40003A1C0F3212781A60BD4604B080BDC0460003044080B582B000AF021CFB1D1A70064B064A1168064A1140FA1D127852050A431A60BD4602B080BDC0460803044002
:400B8000FFFF1FFF80B500AFBD4680BD80B582B000AF7860024B7A681A60BD4602B080BD3004002080B586B000AF3A60FB1D021C1A70BB1D0A1C1A703B1C163300221A80C0
:400BC000FB1D1B78022B04D93B1C163301221A802CE0FB1D1B78012B07D11123002B04D13B1C163314221A8020E0FB1D1B78134A5B00D3185A883B1C08331A81BB1D1B78BC
:400C00009AB23B1C08339A803B1C08333A681A603B1C0833181C002101220CF00FF9031C002B03D03B1C163301221A803B1C16331B88181CBD4606B080BDC0462C170100CF
:400C400090B589B000AF3C1C0C3420807B603B1C0B3319703B1C0A331A702C4B1B78022B05D03B1C1E33832252001A8047E03B1C0B331B78022B04D93B1C1E3301221A80F5
:400C80003DE00F23002B13D00F235A1E2049131C9B009B189B00CB1808339B68181C00F0A9F9031C1A1C012313409BB2002B05D13B1C1E330422FF321A8020E03B1C0B337D
:400CC0001B78144A5B00D3185A883B1C10331A813B1C10337A681A603B1C0A331B789AB23B1C10339A803C1C1E343B1C0C333A1C10321868111C0BF019FC031C23803B1CDB
:400D00001E331B88181CBD4609B090BD30250020141801002C17010090B587B000AF786000237B613B1C133300221A703B1C08337A6812881A803B1C083300225A607B6858
:400D40009A890F239A4226D13B1C083300229A707B685B68181C00F04DF9031C1A1C012313409BB2002B03D06623FF337B6102E0B3235B007B612E4B1B7802221343DAB2CE
:400D80002B4B1A702B4B1B78DBB201229343DAB2284B1A701DE07B689A8913239A4218D13B1C083302229A707B685B681B78012B03D1B2235B007B6103E03B1C13338022F6
:400DC0001A701C4B1B78DBB201229343DAB2194B1A707B69002B24D07B681A1D7B683C1C1334101C00211A1C40230CF043F8031C23703B1C13331B78002B12D10E4B1B68E7
:400E0000002B08D00C4B1B6879693A1C0832081C111C984705E0094B1B687A684C20111C98473B1C13331B78181CBD4607B090BD242500203825002030040020282500200B
:400E400080B500AF074B00221A70074B00221A70064B00221A7000F00DF8054B00221A70BD4680BD3825002036250020372500202425002080B500AF00F048FBFFF782FEFA
:400E8000BD4680BD90B585B000AF78603B1C0E3301221A80194B1B78002B04D1FFF7D0FF164B01221A707B68002B1FD0144B7A681A603C1C0E34134A134B101C191C17222B
:400EC00001F062FB031C23803B1C0E331B88002B0CD10E4B01221A703C1C0E340C4B181C262115220BF092FF031C23803B1C0E331B88181CBD4605B090BDC04638040020D2
:400F0000282500201512000040040020302500201418010080B500AF01F022FB01F00AFB024B00221A70BD4680BDC0463025002090B585B000AF021CFB1D1A70294B1B788B
:400F4000042B42D1284B1B78DBB21A1C042313403BD1FB1D1B78002B0BD1244B1E221A82224B5B6820221A80204B5B6830225A8010E0FB1D1B78012B0CD11C4B96221A821E
:400F80001A4B5B68C822D2001A80184B5B688022D2015A80164BFA1D12781A703C1C0E34124B181C0AF08CF9031C23803B1C0E331B88002B08D10C4B1B78DBB20422134314
:400FC000DAB2094B1A7005E004E03B1C0E33832252001A803B1C0E331B88181CBD4605B090BDC0463025002038250020380100203725002080B582B000AF78607B681B78F0
:401000001A1C7B6801331B781B029BB213439BB2181CBD4602B080BD90B585B000AF78603B1C0F3300221A707B689A890B239A4237D17B681A1D7B683C1C0F34101C00215A
:401040001A1C40230BF016FF031C23703B1C0F331B78002B1DD17B685B68181CFFF7CAFF031C1A1C022313409BB2002B08D0104B1B68822251007A68081C111C984708E04D
:401080000B4B1B680622111CFF317A68081C111C9847084B1B78DBB201229343DAB2054B1A703B1C0F331B78181CBD4605B090BD282500203825002090B585B000AF78609E
:4010C0003C1C0F347B68181CFFF7A6FF031C23703B1C0F331B78002B0ED11C4B1B78DBB21A1C0123134007D03C1C0F347B68181CFFF712FE031C2370144B1B78DBB21A1C91
:40110000012313401FD13B1C0F331B78002B16D03B1C083312229A707B689A893B1C08331A803B1C08333A1C0F321278DA707B683A1C08321868111C0BF0DAF903E07B6858
:4011400018680BF03DFABD4605B090BD3825002080B582B000AF7860BD4602B080BDC04680B500AF034B00225A70024B00221A70BD4680BD3425002080B582B000AF786097
:40118000BD4602B080BDC04680B500AFBD4680BD80B584B000AF78603B1C0E3300221A707B689B79002B1CD13B1C0F3300221A7012E03B1C0F331B787A68D35C002B04D05D
:4011C0003B1C0E3301221A700BE03B1C0F331A783B1C0F3301321A703B1C0F331B78052BE7D93B1C0E331B78181CBD4604B080BD80B582B000AF021CBB1D1A80BD4602B074
:4012000080BDC04680B582B000AF7860BD4602B080BDC04680B584B000AF021C3960FB1D1A70AC4B1B78DBB201221343DAB2A94B1A70FB1D1B782A2B00D190E016DC212BFB
:4012400000D175E008DC022B00D167E0052B00D169E0012B27D022E1272B00D184E0282B00D189E0262B00D18AE018E14C2B00D102E109DC422B00D1DDE0432B00D1DDE00F
:40128000412B00D1BCE00AE1542B00D1F9E003DC4E2B00D102E102E1712B00D1AAE0FA2B00D1F3E0FBE03B1C0C3308221A703B1C0C3300225A703B1C0C33181C02F00DFC26
:4012C0003B1C0C3301225A703B1C0C33181C02F004FC814B1B68181CFFF75AFF031C002B05D07D4B1B68181C01F028F90FE07B4B1A787B4B1A707B4B1A78794B5A707A4BEB
:401300001A78774B9A70764B181C01F017F9032009F098FE754B04221A70C0E03B68181CFFF72AFFBBE03B681A78714B1A70B6E0684B1B78DBB21A1C202313400ED16D4BBF
:401340001B78102B02D16B4B0522DA706A4B1A78684B101C191C09F07DFFA0E09FE03B68181CFFF74FFF9AE03B68181CFFF74AFF5E4B02221A7092E05C4B04221A708EE09D
:401380005A4B1B78022B34D0524B1B78DBB21A1C012313402DD04F4B1B78DBB21A1C042313400BD0514B03221A704A4B1B78DBB204229343DAB2474B1A701AE0454B1B7857
:4013C000DBB21A1C082313400BD0484B04221A70404B1B78DBB208229343DAB23D4B1A7007E0424B1B78032B03D1404B04221A7055E054E03B681B88181CFFF7F9FE4EE003
:401400003D4A3B68111C1A1C0223081C111C1A1C01F07BF8384B1B789A00384BD318384A111C1A1C0423081C111C1A1C01F06DF8FFF7AAFE33E0FFF793FE30E03B685B883A
:40144000162B05D83B1C0E333A6852881A8003E03B1C0E3317221A803B683A1C0E321288198800230904090C1B0C1B040B43181C111C0BF049F812E03B68181CFFF71CFE8F
:401480000DE03B68181CFFF763FE08E01D4B1B7801221343DAB21B4B1A7000E0C0460D4B1B78DBB21A1C112313400FD0094B1B78DBB201229343DAB2064B1A70124B1B688B
:4014C000FA1D11783A68081C111C9847BD4604B080BDC04638250020E40000207CF1FF0FDC0000207DF1FF0F7BF1FF0F3025002036250020AC010020342500200018010043
:401500002C250020242500202825002080B500AFBD4680BD80B500AF074B03221A60074B802212061A60064B00221A60054B03221A60BD4680BDC046DC1000200000304047
:4015400004003040080F304080B500AF054B054A1168054A12680A43802109010A431A60BD4680BD04003040DC10002080B500AF064B1B78002B04D1FFF7CCFF034B012232
:401580001A70FFF7E1FFBD4680BDC046D810002080B500AF064B1B78002B04D100F00AF8034B01221A7000F0D9F8BD4680BDC046E010002090B585B000AF0F20032100F045
:4015C0002FFC4F4B0F20191C00F004FC4D4B01221A604D4B4D4A1A604D4B4E4A1A604E4B4E4A1A604E4B00221A604E4B4E4A1A604E4B4D4A1A604E4B4D4A1268802149027F
:401600000A431A604B4B00221A604B4B00221A604A4B01221A604A4B1B687B607A68494B13407B607B688022920513437B607B68012293437B60424B7A681A600023FB604B
:4016400058E00022DC239B0113407B60FB689B003D4A9B187A681A600022012313400AD0344B344A1168FA680120041C9440221C92B20A431A600022022313400AD02E4B1D
:401680002D4A1168FA680120041C9440221C92B20A431A60002280239B00134003D080235B00BB6002E080235B01BB60002280235B00134005D1254BFA6852000021D1522E
:4016C00004E0224BFA6852000021D152BB68204A53438022D2009B18002B01DA1D4C1B19DB129BB219B21C4BFA689200D150FB680133FB60FB68002BA3D0BD4605B090BD3B
:40170000E518000020003A4000003A40C002005104003A408C000A8018003A400000FF071C003A4010003A400400040014003A4000033A4028023A4038023A4018023A403A
:4017400030003A40FFFFFFDF80003A404025002010270000FF0700003C25002080B500AF0A4B1B68002B0EDBC046094B1B68002BFBDB064B054A1268802109060A431A6067
:401780000A2000F0E5FBBD4680BDC04600003A4008023A4080B500AF034B034A1268520052081A60BD4680BD00003A4080B500AF024B01221A60BD4680BDC04624003A4060
:4017C00080B500AFBD4680BD80B584B000AF78600023FB607A680323134011D00B4B1A6801231340FB60FB68002B03D17A6802231340F3D1FB68002B02D0044B01221A60A5
:40180000FB68181CBD4604B080BDC04610023A4080B584B000AF78607B68002B02D0002000F068FB7B68002B08D17B689B00084A9B181B681B041B0CFB6001E00023FB605B
:40184000FB689BB21BB2181CBD4604B080BDC04680013A4080B500AF104B104A1268802109060A431A600E4B1B68002B11DA0D4B1A6880235B02134003D00B4B03221A7041
:4018800002E0094B01221A70FFF79AFFFFF782FF02E0054B00221A70BD4680BD30003A4000003A4004003A40E410002080B500AF0A4B0A4A1268520052081A60084B1B7858
:4018C000002B09D0FFF74AFF054B1B781A1C0223134001D0FFF76AFFBD4680BD30003A40E410002080B582B000AF044B1B687B60024B7A681A60BD4602B080BD10023A40FC
:401900000230800803D00138FDD1C046C046C0467047EFF3108072B6704780F31088704780B500AF0B4B0B4A126801218A431A60094B094A126830218A4310210A431A608E
:40194000054B054A126807218A4301210A431A60BD4680BD00F02E4000FF2E4080B500AF0E4B0E4A126802218A431A600C4B0C4A126807218A4302210A431A60084B084A41
:40198000126830218A4320210A431A60034B034A126801210A431A60BD4680BD00F02E4000FF2E4090B585B000AF78603C1C0F34FFF7AFFF031C2370094B796807220A40E4
:4019C000D104074A1068074A02400A431A603B1C0F331B78181CFFF7A0FFBD4605B090BD00010B40FFFFC7FF80B584B000AF78600023FB60154B154A126801210A431A6055
:401A0000134B144A1A60144B134A1268802109020A431A607B68002B13D01023FB600DE0012000F095FA00F019F8031C002B02D00023FB6005E07B68013B7B607B68002B33
:401A4000EED1FB68181CBD4604B080BD60F02E4078002E400220000010002E4080B500AF034B1A6801231340181CBD4680BDC0460C002E4080B500AFFFF752FF044B044AF1
:401A80001268802109060A431A60BD4680BDC04600F02E4080B584B000AF78600C4B1A6801231340FB607B68002B02D0012B03D005E0FFF735FF06E0FFF750FF03E00020DA
:401AC00000F018FAC046FB68181CBD4604B080BD00F02E4090B583B000AFFC1DFFF719FF031C2370074B074A1268C02109020A431A60FB1D1B78181CFFF70FFFBD4603B08C
:401B000090BDC04600010B4080B500AF054B1A68C0231B02134001D0012300E00023181CBD4680BD00010B4090B583B000AFFC1DFFF7EFFE031C23700C4B0C4A11680C4AF4
:401B40000A408021C9010A431A60084B074A1168074A0A40802109020A431A60FB1D1B78181CFFF7DAFEBD4603B090BD00010B40FF3FFFFF80B582B000AF78607B68022B88
:401B800002D9002000F0B6F9054B1A687B68DB000133DA4001231340181CBD4602B080BD10020B4080B584B000AF786039607B68022B02D9002000F09DF97B68181CFFF78C
:401BC000D9FF031C002B18D10D4B1B687A68D2000321081C9040021CD2431340FB603A6803231A407B68DB00111C99400B1CFA681343FB60024BFA681A60BD4604B080BD15
:401C00000C020B4080B584B000AF786039607B68002B02D07B68012B01D1012300E00023002B02D1002000F065F97B68181CFFF7A1FF031C002B18D10D4B1B687A68D200FF
:401C400002320121081C9040021CD2431340FB607B68DB0002333A68111C99400B1CFA681343FB60024BFA681A60BD4604B080BD0C020B4080B582B000AF7860154B154A41
:401C800011687A680A431A607A680123134006D0C0460020FFF76EFF031C002BF9D07A6880235B00134006D0C0460120FFF762FF031C002BF9D07A6880235B02134006D092
:401CC000C0460220FFF756FF031C002BF9D0BD4602B080BD10020B4080B584B000AF786039607B68002B02D07B68012B01D1012300E00023002B02D1002000F0FBF8174B3B
:401D00001B689B0F9B0701D1C92300E05D23181C00F01EF9124B1B68FB607B681B01114A111C99400B1CDA43FB681340FB600C4B7A68120139689140FA680A431A60074B52
:401D40001B689B0F9B0701D1432300E01F23181C00F0FEF8BD4604B080BDC0460C020B4008020B40FFFF000090B585B000AF78603C1C0B34FFF7CDFD031C2370FFF7C4FEB8
:401D8000031C002B04D00123FB60FFF7CDFE01E00023FB607A680C4B13407B600B4B0B4A11680B4A11407A680A431A60FB68012B01D1FFF78FFE3B1C0B331B78181CFFF756
:401DC000ACFDBD4605B090BD0404040010020B40FBFBFBFF80B584B000AF021C3960FB1D1A7080239B05FB60FB1D1B781F2B02D9002000F07FF8FB1D1B7810339B00FA688B
:401E0000D3181B68BB60FB1D1B7810339B00FA68D3183A681A60BB68181CBD4604B080BD90B587B000AF0A1CFB1D011C1970BB1D1A70BB1D1B78032B02D9002000F05AF895
:401E4000FB1D1B781F2B02D9002000F053F8FB1D1A7803231340DB0006337B613C1C1334FFF757FD031C2370FB1D1B789B08DBB29B0014495B181B68FB607B690322111C2F
:401E800099400B1CDA43FB681340FB60BB1D1A787B69111C99400B1CFA681343FB60FB1D1B789B08DBB29B00064A9B18FA681A603B1C13331B78181CFFF72FFDBD4607B0D1
:401EC00090BDC04600E400E080B582B000AF021CFB1D1A70064BFA1D11781F220A400121081C9040021C1A60BD4602B080BDC04600E100E080B582B000AF021CFB1D1A703C
:401F000001BEBD4602B080BD80B582B000AF786008E00C4B1B68181CFFF7F2FC7B680A4A9B187B607A6880231B029A42F1D8074B1B687A685343181CFFF7E2FCBD4602B012
:401F400080BDC046BC0100200080FFFFB401002080B582B000AF021CBB1D1A80BB1D1B88044A12785343181CFFF7CAFCBD4602B080BDC046B801002090B583B000AFFC1D5E
:401F8000FFF7C7FC031C2370074B074A126804218A431A6030BFFB1D1B78181CFFF7BDFCBD4603B090BDC04610ED00E090B583B000AFFC1DFFF7ADFC031C2370114B114A82
:401FC0001268520052081A600F4B104A128892B21A600F4B0E4A126804210A431A600D4B1B683B600220FFF7DDFC30BF094B3A681A60FB1D1B78181CFFF78FFCBD4603B041
:4020000090BDC04600000B400C000B4052F1FF0F10ED00E000010B4090B583B000AFFC1DFFF777FC031C2370114B114A1268802109060A431A600F4B0F4A128892B21A6023
:402040000E4B0E4A126804210A431A600C4B0C4A1268FF218A43F1210A431A6030BFFB1D1B78181CFFF759FCBD4603B090BDC04600000B400C000B4050F1FF0F10ED00E06C
:402080002C000B4080B500AF104B8022D2041A600E4B0E4A12681A60002000F04DF80B4B0A4A12681A600A4B0C221A60012000F08BF8084B31221A60074B181C00F04AF877
:4020C000054B181C00F054F8BD4680BD000120402401204028012040FFFF000090B583B000AFFC1DFFF715FC031C2370084B084A126801210A431A60FB1D1B78181CFFF79D
:402100000CFC0120182100F041F8BD4603B090BD0000204080B500AF064B1B78002B04D1FFF7B0FF034B01221A70FFF7D7FFBD4680BDC046E810002080B582B000AF786031
:40214000034B7A681204120C1A60BD4602B080BD0801204080B582B000AF7860034B7A681204120C1A60BD4602B080BD1401204080B582B000AF7860034B7A681204120CA1
:402180001A60BD4602B080BD0C01204090B585B000AF786039603C1C0F34FFF7BAFB031C2370084B3A687968081C9040021C1A603B1C0F331B78181CFFF7AFFBBD4605B09A
:4021C00090BDC0460800204080B582B000AF7860024B7A681A60BD4602B080BD3801204080B582B000AF78600A1CBB1C1A80BB1C1A887B681A60BD4602B080BD80B582B04E
:4022000000AF78600A1CBB1C1A80BB1C1A887B681A60BD4602B080BD80B582B000AF021CBB1D1A80BB1D1B88181CFFF791FEBD4602B080BD80B500AF00F068F8BD4680BD78
:4022400080B500AF00F06CF8BD4680BD80B500AF00F066F8044B181C00F024F8032000F02DF8BD4680BDC0463523000080B500AF024B181C00F004F8BD4680BD3523000066
:4022800080B582B000AF786000F04AF87B68181C00F008F8032000F011F800F037F8BD4602B080BD80B582B000AF7860024B7A681A67BD4602B080BD0000002090B585B0A0
:4022C00000AF021CFB1D1A700623FB603C1C0B34FFF71FFB031C23700B4B0B4A1268C021101C8843011CFA1D1078FA68041C9440221C0A431A603B1C0B331B78181CFFF72C
:402300000CFBBD4605B090BD0CE400E080B500AF024B802252011A60BD4680BD00E100E080B500AF024B802252011A60BD4680BD80E100E080B500AF0FF0ACF9BD4680BD37
:40234000002934D00123002210B488422CD301242407A14204D2814202D209011B01F8E7E400A14204D2814202D249005B00F8E7884201D3401A1A434C08A04202D3001B86
:402380005C0822438C08A04202D3001B9C082243CC08A04202D3001BDC082243002803D01B0901D00909E3E7101C10BC7047002801D00020C04307B4024802A140180290CD
:4023C00003BDC046D90000000029F0D003B5FFF7B9FF0EBC4243891A1847C046002941D010B4041C4C40A44601230022002900D54942002800D5404288422CD3012424079D
:40240000A14204D2814202D209011B01F8E7E400A14204D2814202D249005B00F8E7884201D3401A1A434C08A04202D3001B5C0822438C08A04202D3001B9C082243CC0809
:40244000A04202D3001BDC082243002803D01B0901D00909E3E7101C6446002C00D5404210BC7047002806D003DB0020C043400801E08020000607B4024802A14018029039
:4024800003BDC046190000000029EBD003B5FFF7A7FF0EBC4243891A1847C0467047C04670B50E4B0E4D0024ED1AAD101E1CAC4204D0A300F35898470134F8E70FF060FBF9
:4024C000084B094D0024ED1AAD101E1CAC4204D0A300F35898470134F8E770BD8C1B01008C1B01008C1B0100941B010030B50023934208D0C55C0133CC18013C2478A542EB
:40250000F6D0281B00E0002030BD10B50023934203D0CC5CC4540133F9E710BD031C8218934202D019700133FAE7704710B501F05FFA10BD10B500F0EFF810BD10B50749E5
:40254000044609780220002907D1204601F07EFA002802D1204608F05FFE10BDD202002010B506F027F901F043FA01F067FA01F084FA00F0DBF800F0E5F8024900200870EA
:4025800010BD0000C0010020F7B51F4E0024307815460F46002804D00824B76075802046FEBD002F00D1012401F022FA0098002805D0172D03D301204002854201D9012479
:4025C000EBE7002CE9D12946384600F023F80400E3D1706800F01CF80400DED1706800F015F80400D9D101F00BFA0400D5D1009806F0CAF80400D0D106F0E0F80400CCD15D
:4026000001203070C9E70000C00100200020704700207047F8B50D4607460026FFF726FEFFF70EFE00F056FA040065D100F0E2FB040061D13449084600F0BAFD0404240CE4
:402640005AD1A80705D0A807800F0421081A401985B2172D02D968002E3886B22B48301881B2384601F0A8F8040045D1284F03460246002825D127495E008E5B29461031CD
:402680008E4207D99000C01941800221521C4170D2B215E08E420BD10020787690001D49C0194680891FC95C891C4170012012E0052A06D11648064614364183022070713F
:4026C000012014495E008E5B9100C9194E80114EB61FF65C4E705B1C521CDBB2D2B2062BC7D30B4800F084F8002C05D100F09CF807490120891E087000F0FEF9002C01D016
:40270000FF20F8BD0020F8BD5D270000940C0000CE010020061C010010B503480078012801D100F0D9FE10BDCC01002010B500F0C3FB002803D100F0E3F9002800D0FF2064
:4027400010BD000010B500F0CDFB00F063FD02490020087010BD0000CC0100207047000010B5011F0878034A8000105800F0C4FF10BD0000EC10002010B504460449800059
:40278000085800F027FF002801D00470001D10BDEC10002038B5044692B2C9B2684600F03FFF024AA1000098505038BDEC10002070B50B49064600204C6805466178002942
:4027C00008D06188B14202D32078FFF7D5FF002804D1241D6D1CEDB2082DEFD370BD0000F001002010B5002801D0FFF7B9FF10BD70B50B4E0446002570606178002905D086
:4028000062882078121D0023FFF7C4FF6D1C241DEDB2082DF1D3024800F0C0FFB06070BDF0010020002070471CB5002469460C70142001902346054A05480CF0EFFA044870
:402840000068401C00D1FF2420461CBDA5280000FC0100203EB5124A0146FF2000230124126800290DD0012914D0042908D104206946009308814B8110460CF0CAFA80B2E3
:402880003EBD6846009304814381694610460CF0BBFAF4E768460093048143816946EBE7FC01002070B54589046841680089030000F026F806240408081D2124002004F084
:4028C0003BFF1BE0022908D0C8B22A4621460AF02FFD2046FFF786FF10E002202A4621460AF026FD2946204600F018F806E000200BF080FF02E020460CF016FB002070BD4B
:4029000030B47446641E2578641CAB4200D21D46635D5B00E31830BC18470000014B0022DB6818470002002010B542890168094B00899C68022803D0032804D0FF2010BDE3
:402940000023012003E0121D002392B20220A047002010BD00020020704770470248002141600180418070470002002070B50C46002186B016460391012802D0022859D1E0
:4029800016E003A9012005F03AFE01281BD1039D324621462846FFF7B8FD0095287801900220694608814E816846FFF7BDFF41E0214D002B686809D0049004A9022005F070
:4029C0001EFE01281DD0022006B070BD002812D0298840182146FFF798FD28880024801980B228806988091D884206D12C801348FFF79AFF03E00320E6E788421AD96C60AA
:402A000018E004986860E278A378110219430B4A698000231060E3565360032313815181A1788170E178C1706178417021780170042028800020C7E7000200200C110020EC
:402A4000F7B5022784B016460546022802D0042D29D106E005980090019568460781428113E01046FFF7A4FE040016D032460599FFF74BFD68460195009407810B4B468141
:402A8000DB6800223146059898470948694600680CF0BFF9012007B0F0BD044B0022DB683146059898470020F5E7000000020020FC010020014AD1609060704700020020F6
:402AC000034801688068081A0A214843000970471811002010B5FFF7B9FB542204490548FFF713FD03490120C870002010BD0000161C01006813002010B5FFF79BFB10BD56
:402B00000020704770B5134C2368002B08D0207B1149C20705D04008400020738868A08070BD88680B4AA18880B29268814203D90A4D691A091802E0814202D2411A511850
:402B4000A160A080A0689842EAD300F015F80CF07DF970BD18110020C0102E40FFFF000010B508461946FFF7A5FF10BD704710B5FFF766FF10BD0000034800210160416089
:402B80008160C160704700001811002010B502000DD0FFF7F1FF074C0321207B0843207310010A21FFF710FC2060002010BDFF2010BD00001811002000B504480A218068A5
:402BC00048430209FFF7D8FF104600BD181100200248007B8007C00F704700001811002070B558490868002802DA574B01221A70022290430860554800695249C00B403136
:402C0000096A08426CD0012000F08EFA4F4850497C30FFF7F3FA4B480E216C30FFF7EEFA4A4820218430FFF7E9FA484814219C30FFF7E4FA4548FF21C131A430FFF7DEFA01
:402C40004248FF212F31B030FFF7D8FA3F484149BC30FFF7D3FA3D483F49AC30FFF7CEFA3D493A48491CB430FFF7C8FA37483B49B830FFF7C3FA35483949CC30FFF7BEFAEB
:402C8000324838490830FFF7B9FA30483649A830FFF7B4FA2D4835498830FFF7AFFA2B4833498C30FFF7AAFA28481921C9029030FFF7A4FA2F4D287E697E0C020443A87FE8
:402CC000E97F2D4A090201432C48914201D1072C08D035229201914208D1042C05D005E0FF2070BD0146042400E0014617486C30FFF784FA154821467430FFF77FFAA87EB4
:402D0000E97E0902014301204003814201D0002900D11B490D487830FFF770FA2A7F687F010218481143814204D01748814201D0052901D113490A3904488030FFF75EFA70
:402D4000002070BD00F02E401002002000002E4055650000320300002F3F00003102000010520000EC160000FA12000031D000003AE30000C0F0FF0F580B0000580D000064
:402D8000022000000F0F00000505000070B50646581C80B245086D00002408E0304600F07FF81055000A1119A41C4870A4B2AC42F4D3D80705D0D0182038D15CC47FD45467
:402DC000C17770BD30B50A4C002100195B1E07E0541864782502545C2C430480891C89B29942F5DB994201D1515C018030BD000000102E4010B5FF2000F096F90F49FF20DC
:402E000088700E481021801D41800121417001700A490020091D4870FFF7E2FE04000AD100F0DAF807210648FFF7DAF9044807211830FFF7D5F9204610BD00001002002085
:402E4000CC112E4030B504465B1C1804450C002308E0204600F024F8241D59005B1CA4B250529BB2AB42F4D330BD000070B500210A4D5B1E0AE0541864782602545C3443E9
:402E800046193480001D891C80B289B29942F2DB994202D1515C4019018070BD00102E40014940180088704700102E40014A80180180704700102E4010B508490020487062
:402EC00000F08AF807210648FFF78AF9044807211830FFF785F9002010BD000014020020CC112E4010B506480078012803D102210448FFF783F902490020091F087010BD92
:402F00001402002070F02E4010B50B46062812D006DC01280CD0032801D1FFF7CDFF10BD0A28FCD00B28FAD105480078107010BDFFF760FF10BD1146184600F027F910BD32
:402F400016020020F8B5214DAC6A0127A007204E002818DA3078062810D1286A384328621C480069F903084381B21A481030FFF745F9301F4770042000F0D6F813480221C0
:402F80002830FFF72DF9E00711D0062000F0CCF80F49FF20091F88707078002802D1686B38436863094801212830FFF719F9E0050BD53078042802D1052000F0B5F803481C
:402FC000FF2101312830FFF70BF9F8BD40F02E401402002000002E4010B503212348FFF70DF90120FFF718F920483038406A204C80076178800F890001431C480C38FFF77E
:40300000FDF86078002808D0401E022181401820FFF73AFAC000083800E0B82081B21548FFF7ECF81348032109021438FFF7E6F810481149B830FFF7E1F8452189010F48A3
:40304000FFF7DCF80D480321001FFFF7D7F80C490C48FFF7D3F80B480B496038FFF7CEF8084801218838FFF7C9F810BD70F02E4016020020D8102E4090890000041E2E4009
:40308000FF0F000058122E40209000000849087806280BD148780749002803D1486B400840004863C86A01221043C862704700001402002040F02E400148007870470000D8
:4030C0001402002002488078022800D0012070471002002000B50300FFF712FC080D050D0B070507090D012000BD032000BD042000BD022000BDFF2000BD0000074A916899
:40310000D26889B2064B92B2994204D105498A4201D1012100E000210170704780002E4033D000003FE3000010B50446FFF788F8072C01D9FF2C01D102480470FFF77AF8D6
:4031400010BD00001402002001498870704700001002002010B50A4A141D012808D009491046FFF74BF808492046FFF747F810BD04491046891CFFF741F80349491DF3E739
:4031800088002E4031D000003AE300000078074AFF2803D04C2804D9553803E01078087070474F3808701070704700001302002010B50F4A002313600E4A13600E4B186005
:4031C0000E4801600E49012008600E490860000290600E490C4808600D4914300860FF381538506000F0BEF800F0CCF9002010BD340200201C020020480200204C0200208A
:403200003802002028020020281200202C0200204002002000207047014610B50020002910D0094B1A689C685118A14209D25868196080188A0704D08A07920F891A091DA2
:40324000196010BD002010BD1C020020F8B50024164E671E321F3D463168136806E01422624310328A58521C1BD0641C9C42F6D36A1C14D02C461422544322460C328850AF
:403280000C214843FFF7C8FF3168002808510AD031680020103408517068401C70602846F8BD2546E4E73846F8BD00002C020020F3B50026F64381B000281BDB1E49096843
:4032C000884217D80299002914D01B4F142204463F1D54432546396810354859401C09D0FEF7AEFF38682F1F4159C359994203DBFEF7A0FF3046FEBD2146083100914658D6
:4033000001590C20704308180C220299FFF7FDF80948761C001D0068C159B14200D100260549009A091D865008684159491C4151FEF780FF0020FEBD28020020002803DB90
:4033400007490968884202D90020C043704704491422091D09685043103008587047000028020020F0B500200D4A451E0346171F50600FE014260146714314680E1DA35152
:403380000C461668083433511668083435511468401C635039688842ECD30020F0BD00002C020020F3B50026F64381B0002841DB2349096888423DD8029900293AD0204FF8
:4033C000142204463F1D54432546396810354859401C2FD0FEF734FF3868415900292BD0211D009146580C21005971430F46C1190C220298FFF789F811480021001D006873
:40340000761C00590C34C0190160416081600C48001D00680159B14200D100260849009A091D865008684159491E4151FEF702FF0020FEBD3046FEBDFEF7FCFEFAE70000CC
:4034400028020020FEB504460D4600201E49089E0860471E009001900290002C11D0486885420ED2002A0CD0002E0AD0642E08D808460C3001681C2068430C18207A002861
:4034800001D03846FEBD0120226020721846FFF7DDFE6060401C13D06681A6810A4827610C3067610179A94200D205710021684601810A462846029B00F040F82846FEBD09
:4034C00000202072DDE700003402002038B50124009400F039F838BDFEB50027164EFF433D4600240EE01C20316860430818017A002906D04068FFF721FF002801D02546FB
:4035000003E0641C3079A042EDDA681C12D01C2130684D434419FEF793FE69466068FFF741FF0546FEF786FE002DD9D1216868468847D5E7FEBD00004002002038B50024F0
:40354000009400F001F838BD1FB500220C49541E0A60002811DB496888420ED808491C220C31096850430818406801A9FFF7A0FE401C02D0002004B010BD2046FBE7000050
:4035800034020020F0B50021114A4D1E174611710C3F0B46BD6016E008461C2460431668041D355114680646235014680836A3551468361DA353044616680A3433531830BF
:4035C0001468491C255078688142E5D30020F0BD4002002038B500210091002811DB0F49097888420DDA0D4D04010C3529680859002807D0201D0818694600F05FF90028A1
:4036000001D0002038BDFEF71BFE28680F34015D491E0155FEF70EFE009838BD50020020F7B582B00025ED43029800240E460560002A49D0002E47D02D48D21C02402D485C
:40364000174601780C30006805E022018258002A0FD0641CE4B28C42F7D3691C3ED02C01211D40180191314600F016F900282BD101E02546F1E71F480C30016820460C30E3
:403680000F521C480C30016820460E300E5419480C30016820460F300E543846704300F0ADF814490C310968002808510CD00024009011E00F480C3001680198081800996C
:4036C00000F017F9002802D0012005B0F0BD0098C019641CE4B20090B442EBD30298054905600C310879401C08710020EDE70000FCFF000050020020F8B50D4600216A4670
:403700008C461180002839DB23490978884235DA214B04010C3319680A59002A2ED020460C300B5A801C0E5C184670438018954224D3854222D2002006E007465F43BF185D
:40374000AF4206D0401CC0B2B042F6D36046002814D0114E271DC8190C366A46294600F0F2F800280AD168460088012808D030682946C01900F0BDF8002803D00120F8BDF8
:403780000020F8BDFEF75CFD30680F34015D491C0155FEF74FFDF3E75002002003460020002B06D0034A5168906852884018511A198070475002002070B5002400F0DCF891
:4037C0000D4E002132460C3271600EE0200113680546195013680C355953AD1C13680F3059551368641C1954E4B230788442EDD31171002070BD000050020020014610B576
:40380000002000290CD0C91C064B8A08596892005C888A18A24202D898685A60401810BD002010BD50020020F8B5002827DB19490978884223DA174C05010C342168485972
:4038400000281CD028460C30085A009028460E300E5C401C0E5420682F1DC01900F064F800280CD12068002445590EE0094829460C300068C01900F03CF8002801D0012013
:40388000F8BD00982D18641CE4B2B442EED30020F8BD00005002002030B50D4604000BD0A800FFF7ABFF6060002805D000202570C0436080002030BD012030BD70B50D461B
:4038C000040005D0002D03D00220205E002801DA012070BDFEF7B4FC0221615E60688900405828606088401E6080FEF7A3FC002070BD70B50D46040007D0002D05D0022187
:403900002078615E401E814201DB012070BDFEF797FC6088401C00B26080616880000D50FEF788FC002070BD10B5040009D0227800216068FEF7F2FD0020C04360800020EF
:4039400010BD012010BDF0B500231D46002802D00224045F0AE00120F0BD46689F00F6598E4201D1012503E05B1CDBB29C42F4DA15700020F0BD0000054B11221A70054A81
:403980001180064A0449116005490860704700005002002052020020581200205C020020580200200148007870470000640200207CB505460024FEF7B9FDA8796946087002
:4039C00000A8062229460130FEF79FFD0021684604F010F90C2804D0072804D01F2804D004E0022402E0042400E0272420467CBD10B500F0CDF8FFF75FFBFFF76BFB10BD03
:403A000010B503240BF02AFF002810D10BF0CEFE00280CD104F042FE002808D100F070FA002804D104F040FB002800D10024024900200870204610BD64020020FF20024AC2
:403A400000211170704700006402002070B50025044600280ED0A07901280BD8FEF766FDA0790028204602D002F010FE03E002F0C5FD00E00125284670BD704710B5FFF72D
:403A80001BFB012801D1FFF71DFB10BD38B504460120002C20D0617801291DD800290BD0FF25E535FEF742FD2846FFF7F9F9C0B22070072803D00EE0FF25CD35F2E70020D1
:403AC000694608706846FFF719FB69460878012801D108202070002038BD70B504460120002C1FD06178012902D92278092A19D8002906D0FF25E53520780726092803D0A3
:403B000003E0FF25CD35F7E72670FEF70FFD2078082808D00020FFF71DFB21782846FFF7C5F9002070BD0120FFF714FB2670F4E770B50D46040001D0002000E005480028D8
:403B400002D0012101F0D4FF2946204602F0AEFA70BD0000DC13002038B5054600200446009022466946284600F062FE0098002801D00BF055FEA878214602F0DBF8A87890
:403B8000214602F0CAF8641CE4B2052CE9D338BD38B5FFF791FA224C2178012911D0062813D0032836D007280AD100206946087002460120FFF7A8F9FFF77EFA0128FBD17C
:403BC00038BD20780128FCD038BD02F01BF9FFF773FA0128FBD120780128FCD0A12424012046FFF75DF901210E4A83079B0F1170022BE9D15288002AE6D001432046FFF757
:403C000055F92046FFF74CF9410849002046FFF74DF938BD02F0FAF80120FFF785FA38BD110200206A020020F8B50646002402F03FFE0546304602F053FE0021034601265D
:403C400032468A40174610462F401840002F03D0002801D1224394B2491CC9B20529EFD32046F8BD1CB50020694648706846FFF70DFF01AA69460A20FFF746F96946042062
:403C800008561CBD10B50C4601F076F9002809D00179002906D0C1788078224602F0B4FA002010BD022010BD0148007870470000A81300204030C07E002800D001207047F6
:403CC00000B500F001F800BD88214843064940186030417F491CC9B24177052901D300214177C8B270470000BC13002013B501F043F904000BD001F0CEFC002807D02146B6
:403D000001AA0A310620FFF7FFF800201CBD02201CBD000010B50C4601F02EF900280AD001F0B9FC002806D0224604490A20FFF7EBF8002010BD022010BD00009113002069
:403D4000F3B581B0074601460026029802F0A8FD0446002F01D0002500E0154D002D21D0284601F03FF9032C04D13946029802F0C1FD06463846029901F0CFFF032C06D023
:403D8000002C10D00121384601F04CFA03E03146384602F063FF284601F090FE0221284601F0A6FEFEBD3846029901F0B6FFFEBDDC13002070B50446002503F055FB00289E
:403DC00001D00C2070BD2078611C02F017FBFF2802D01F25284670BD02F064FBFF2804D02178621C01F00EFFF4E70725F2E710B503F03AFB002801D00C2010BD02F0D6FAC6
:403E0000002010BD70B50D46044610210BF048FC1021601806460BF043FC334610221946204603F04DFB102130460BF039FC02202870204604F090F870BD70B504464078C2
:403E4000217802028006850FE0781143A67809050002090D0643084601F08EF8002812D0022D10D0032D0ED0002E08D00179092909D0002907D0214600F0A1F870BD008935
:403E8000002103F09EFF20460BF0CAFC70BD0020704770B50446002503F0E6FA002801D00C2070BD2078611C02F0A8FAFF2802D002F0EAF900E01F25284670BD10B504F07E
:403EC000F3F800F0F6F8002010BD10B5044600786178E2780843A17811430843217908436179084305D003F0B1FA002803D00C2010BD122010BD204602F0C8FB002010BDD7
:403F000010B5044803F01AFB02F0C8F900F004F8002010BD78130020F8B5114D00266E706E736E716E76AE76EE766E75AE70EE70AE712F46EE730120B03778723F20787168
:403F40009B20B87100F00AFA0024204601F06AFB641C2406240EF8D03E72FE71AE73F8BDBC13002070B505460E46084602F0A0FC0446304602F0B4FC0121A9400A46224042
:403F800001400A4301D0012070BD002070BD10B50446084602F0A4FC0121A140014201D0012010BD002010BD10B5FFF785F8032804D101F02BFF0120FFF7B6F810BD70B51C
:403FC000044600790D4609281CD000281AD020464030817E491C8176204601F06FFDA078FFF76EFE064602462946204600F00CF8002806D1A0783146FFF79AFD28460BF02D
:404000000FFC70BD0846FAE7F7B5054648780C468006870FC8788978000282B0014368468180284601F042FB060007D021462846049A00F091FB304605B0F0BD384600F0DE
:4040400039FC0746034601AA2946204600F0CAFA68468088231DC0B20090A878FF22049901F0DEFF684680883B46C2B2A878049902F088FBDFE770B5002500242846FFF728
:40408000D3FD060010D03046E040C007C00F07D02146284601F035FE21462846FFF750FE641CE4B2052CEED36D1C2D062D0EE4D070BD10B502F0F2F8FFF72EFF0BF018FC82
:4040C000002010BDF8B5002400F081F80123012800D10124104F00203E4620360425082203E0002801D0002100E031460979002907D001290BD002290BD01146814021434D
:40410000CCB2401C0006000EEBD07C70F8BD1C43F7E72C43F5E70000BC13002010B5FFF7D1FF10BD10B50B4681791943817103D08078114602F0EAFA10BD10B582798A43B6
:40414000827102D1807802F0F9FA10BD70B5FF25D53502242846FEF7A3FE0C4A9178002901D0022906D1137852789A18282A01D9032402E0032900D101244105490DE0021B
:4041800001432846FEF792FE70BD00006602002010B500F022F8002807D0012805D0032801D0042801D0002010BD012010BD014610B50020C90701D000F009F810BD0146A1
:4041C00010B50020C90701D000F001F810BD10B52020FEF765FE000A10BD10B51820FEF75FFE410501D5042010BD4007800F10BD38B5044640060CD5684601F00DFE022026
:40420000FFF78CFF072002F065F96846007801F071F9200613D5FFF7E0FF01280FD1684601F0FAFD6846007800F09AFA072002F051F9012001F0AAFC0220FFF76FFF38BD43
:4042400010B5034A0178117002F053F9002010BD6602002010B50446FFF7B9FF002801D00C2010BDA27B01211848002A827801D00A4301E05208520082706279012A0FD08B
:40428000C17849084900C170207901280CD06188208802F051FF2080207904280BD00DE0C2780A43C270EFE7E01D02F0D7F90848808C208002E0E01D02F0D0F90549207991
:4042C0008870204602F024F9002010BDBC130020681300206602002038B50478FFF777FF844201D10C2038BD002C18D0072069460870FFF74DFF012807D10121684600F05F
:404300008DF8012801D0092038BD6846007802F0E1F8FFF71BFF02F02BF9012010E0FFF737FF012806D1684601F076FD6846007800F04AFA072002F0CDF802F00DF9022028
:40434000FFF7ECFE002038BD10B5034A0178517002F0B4F9002010BD6602002038B568460BF0F4F9002801D01F2038BD01210098C902018041800025057145718571072102
:404380004173857302F0C4F8009C202200212046FEF7C4F825702A460021601CFEF7BEF8204602F0A6F8204602F088F900980BF037FA042200210248FEF7B0F8002038BD6A
:4043C000660200200346084800B5834209D8184600F0D2FD002804D00089984201D1012000BD002000BD0000FF0E0000074A9179491C8906890E917138220A4092014907BC
:40440000090E11430843024908407047BC130020FF0E0000C006C00E70470000F8B507460E4600240D4803E0002C01D0002500E005462979002905D0641C2406240EF3D0FF
:404440000020F8BD204601F0EDF82E712046FFF7CDFF28813C700120F8BD0000DC13002010B503F061F80222002100F003F801F0BDFE10BD10B5094B40074907000F090F99
:40448000185A595A40185043C0086421FDF79CFF002800D1012080B210BD00006A1C0100F7B53D20405C88B016460C46002829D030786946087200252046FFF7FBFB012853
:4044C00000D00125204603A938300191009023460327A17E34332A46206A03F049F802A8089900900B46019120463A4603A9243002F0C8FF02466846007A3070204601F01F
:404500007DF810460BB0F0BDFFB587B00C4605461078694608723D20005D1746002826D000262046FFF7C6FB012800D00126204603A93830019100902346A17E3433324674
:40454000206A03F015F802A80090291D019120462B1D03A924300A9A02F094FF02006846007A388002D1204601F048F810460BB0F0BDF7B53C20405C88B015460C4600280D
:404580000CD0287869460872002806D000262046FFF790FB012803D003E01F200BB0F0BD0126204603A938300191009023460327E17E34333246E06902F0DAFF02A80899D2
:4045C00000900B46019120463A4603A9243002F08BFF02466846007A2870204601F018F81046DBE7FFB505463C20405C87B016460C46002810D0084601F058F801280BD0E8
:40460000308869460883002809D000272046FFF751FB012805D005E000200BB0F0BD0220FBE70127204602A93830019100902346E17E34333A46E06902F09AFF06A80090C5
:40464000291D019120462B1D02A924300A9A02F04BFF02466846008B30806846008BA870000AE870204600F0D3FF1046D5E770B50D460446FFF71EFB01280AD0E87AA97A5E
:4046800000020143A07801F081FC012808D0002070BD00222421204602F098FC242070BD28214C200155204600F09AFB282070BD002801D0002000E003484030C07F012895
:4046C00000D0002070470000DC1300200146002049070ED50021084B03E0002901D0002200E01A461279022A04D0491C0906090EF3D0704701207047DC13002001460020D9
:4047000049070ED50021084B03E0002901D0002200E01A461279022A04D0491C0906090EF3D0704701207047DC13002010B5044680346068002803D00BF086F8002060603D
:4047400010BD4030417070474030817070474030017070470171704792001018C166704770B53C2501F02CF9040004D020460021433001F0C5FB2946204600F0C0FB002C58
:4047800002D0A07801F0AEF870BD000010B5002801D0002000E00348002802D0008903F056FB10BDDC13002010B5002801D0002000E00448002804D00179072901D100F02D
:4047C00041F810BDDC13002010B501F0F9F8002802D0807801F086F810BD00207047000070B50546008A00281ED010491122897A1140C90618D5294640314A8A098A521C97
:404800004A4392B2D10800D10121540801E0621A94B2A042FBD9FFF7C5F8012804D1298AA878224601F090FC70BD00006813002000230B60052A04D292001018C26E0A600E
:40484000C366704738B5044600200090A079002814D14020015D052901D00E290ED168460AF084FF002809D12046009902F096FB03481021C28A2046FFF754FC38BD000060
:404880006813002010B50B4604460146184602F065F8002802D020460AF0CCFF10BD13B5044601AA11460620FEF72EFB6846818861811CBD002800D10220704770470000C4
:4048C000F8B504462346401D543300909A1EA078911E01F0B0FA25464035A88A298A8000FDF772FD401E81B2688A884203D96982A07801F096FF20460021433001F000FB8A
:404900008020FEF7CDFAE88102F00EFEE989891C8AB26179FFF7AEFD01F068FC02F004FE2A8A6179FFF7A6FD074601F051FC688A00280BD0FF26F1363046FEF7B1FA032170
:40494000090201433046FEF7B1FA02E0002001F056FFFF206130FEF7A3FA6E8A002E0BD070431049FDF790FD0004000C01D0401C80B20D49488002E00B4800214180288A64
:40498000704381B2A07801F0A7FE2837B9B2204602F0D6FBE98AA07801F0F6FDA07801F0DFF9F8BD710200006A0200207FB504468034616805460E46183108226846FDF7BD
:4049C000A4FD31462031082202A8FDF79EFD102168460AF065FE6068102108300AF060FE60682B46083024331022694602F068FD7FBD10B504460821FFF79FFB102120468B
:404A0000FFF79BFB207905281FD006281DD008281AD12189002003F093F9072020712046FFF748F9014620464030012913D00E21017000210176204600F060FF2046FFF7EE
:404A400075FE2046FFF7CCFE10BD20890122002103F05AF9E1E70521EAE70000FFB581B01F4604460821FFF768FB10212046FFF764FB2079082803D0092804D0042203E032
:404A80000422012501E009220025204600F0FAFD264600204036307022712046FFF746FE0398002D02D0012808D00BE001280AD120890022029903F027F904E0218902982C
:404AC00003F03EF9012700203076012F04D0204600F014FF05B0F0BD02983073204602F0A1FA054605480121C28A2046FFF71AFB002DEFD109202071ECE700006813002013
:404B000070B50C460546FFF7D5F8012809D108212846FFF712FB0023012221462846FFF79DFF70BD10B5044600F0ACFD2046FFF7FDFD00214034217010BD70B505461A24DA
:404B4000FFF7B8F8012809D108212846FFF7F5FA0023012221462846FFF780FF70BD0000F8B50446002000900E4668460AF0FEFD002801D00D20F8BD842000590821203064
:404B8000009D00F0F4F920460421383000F0EFF9002E02D1204600F0B3FD2946204602F08DF90E480821C28A2046FFF7BBFA204600F00BFF25464035002808D0204600F0EA
:404BC00023F8002801D0092028700020F8BD08202870204600F072FFF7E7000068130020014610B540310A460978082906D0092907D00A2901D100F091F810BD0B201070B7
:404C000010BD00F001F810BD70B50446007925464035052805D0062803D008280FD00C2070BD03220621204602F0D0F90D480821C28A2046FFF776FA1120287010E00620DC
:404C40002873204602F0EEF90646AA8A0A20424301212046FFF766FA002E01D109202071002070BD6813002038B504460020009068460AF07BFD002801D00D2038BD204623
:404C8000009D00F08BF908202071204600F038FD2946204602F044F900213D2001550F2040210855204600F009FF002038BD00B5024600F0E7FC10214032117000BD10B5F1
:404CC0000446FEF7F7FF012809D04020005D112805D100231A4606212046FFF7BFFE10BD10B5FFF786FE10BD38B504460021684600910AF03BFD00280CD12046009902F056
:404D000086F905480821C28A2046FFF70BFA0D204034207038BD00006813002038B504460021684600910AF021FD002801D00D2038BD2046009902F05FF905480821C28A3B
:404D40002046FFF7EFF90C2040342070002038BD6813002000787047F8B50025002801D0002400E01A4C002C28D0204600F093FC002823D0207903281CD005281CD0264652
:404D80004036B18AA07801F0B5FCB078012815D10021204601F0FFFD274680373868002802D00AF051FD3D600020B0702079072805D007E0042000E006202071F8BD2046A0
:404DC000FFF70EFD0221204600F092FEF8BD0000DC13002010B54C22115400F046F810BD10B50446FF21FFF7A8F909202071A07801F0B0FC10BD000038B5FF216A46118002
:404E0000002801D0002400E0064C002C08D011460620FEF779F8684601882046FFF73FFD38BD0000DC13002010B504468079002809D022214C200155FF212046FFF77DF969
:404E4000204600F012F810BD10B5037902464032002B03D01173092B02D003E0002100E02221117300F001F810BDFEB504460089002701902781207926464036002817D0B1
:404E8000012815D002280AD112E002AA6946204601F052FD002807D100980AF0CBFC204601F072FD0028F0D02046FEF755FEB776254680352868002802D00AF0C5FC2F6016
:404EC0006868002802D00AF0BFFC6F60317B002902D0019800F044F8A078002100F054FF2046FFF7BDFAA07801F03AF8A07800F0F9FC0B20FFF712F900F038FCFEBD70B501
:404F00000E46054602F00CFB044606702846FEF7D1FE014601204140204661700C3000F0D8FF002D10D02889608028464030C1782171002E10D169796171018AE180418A03
:404F40002181808A608107E01820FDF7A9FFC005C00F207100206080204602F09AFE70BD0A4610B50146002002F089FF10BD10B50AF072F910BD000000B50146FFF74AFAB7
:404F8000002801D0002000E00348002802D002898A4200D0002000BDDC13002038B5044680346068002806D168460AF0EFFB002801D100986060606838BD000010B5014641
:404FC00000F074FB0128887802D0FEF77DFE10BD88214843024940186030007F10BD0000BC13002070B5054604464035A87F012811D1A1788820084A484380186030067FCC
:405000003046FEF7AFFF002805D10220A877A078314601F059F870BDBC1300200EB500220A216B460292198100905A811046029B00990AF07BFC0EBD10B50E4CE079002869
:4050400016D0FFF718F80C48827FC17F808B00F095FB01280CD10020E07100F0E6FE0446AC20FDF71DFF010B02D0204600F032FA10BD00006C140020BC1300207047704789
:40508000490510B5490F0B00FDF73AFC060704080C0C0F073E21FFF79DFE10BD0821FFF7D3FE10BDFFF7E1FE10BDFFF7BDFE10BDF8B507460025002D01D0002600E0204EDE
:4050C00000F08EFE3046403044890021418100F091FE304600F0DFFA01282CD1A00702D52846FFF739FEE00602D52846FFF784FEA00602D52846FFF791FF600601D500F061
:40510000F1FA200602D5284600F01CF8600702D5284600F023FA380402D52846FFF744FB780402D52846FFF731FBE00703D021463046FFF7A5FF6D1C2D062D0EBBD0F8BD5B
:40514000DC130020F8B5002801D0002400E0204C002C39D025464035A878012834D1E98AA07801F011FA2046FEF7A4FD01282BD002F0DAF92A8A6179FFF77CF9064601F005
:4051800027F82836B1B2204601F0DAFFE98AA07801F0FAF9FF206130FDF782FE6E8A0D4F0146002E11D0304648430B49FDF76CF90004000C01D0401C80B27880288A704328
:4051C00081B2A07801F088FAF8BD0020F5E70000DC1300206A0200207102000038B5002801D0002400E00D4C0020009068460AF0BDFA002811D12046009901F03DFF607ECC
:4052000002210843607606480421C28A2046FEF789FF0221204600F06BFC38BDDC1300206813002070B50D46124A010001D0002401E014462034002C1BD0204600F036FA13
:4052400001280AD18820484380186030007FFEF789FE002801D101F06FFE20464030817E491B8176204600F029FC2089294602F0A8FD70BDBC13002070B503460088FFF71A
:405280007BFE040013D000F006FA00280FD02079092819D02546997840352973204601F0C1FE0646A878012803D0AA8A02E0022070BDEA880A20424301212046FEF732FFA5
:4052C000002E01D109202071002070BD0EB5002217216B460292198100905A810120029B00990AF023FB0EBDF8B5184E0024F079002820D10025AC20FDF7D2FD000B21E08D
:40530000204600F00DFEFDF7CBFD07462A46214600F034FA01280FD00D48012187838577C477F171002D01D0002000E02030002801D000F0C3FBF8BDAC20FDF7B1FD000BC9
:40534000641CE4B20028DBD1F8BD00006C140020BC13002010B50088FFF70EFE002809D0014640310C460978082905D00B2903D00C2010BD022010BDFFF746FC002801D0FE
:4053800009202070002010BD70B503460088FFF7F3FD040008D0254640352878082805D00B2803D00C2070BD022070BD8420005910220830991CFDF7A8F82046FFF7F6FA60
:4053C0002878082804D02046FFF7A8FC002801D00A202870204600F071FB002070BD000010B50C46002121700088FFF7C5FD03000BD000F050F9002807D009481121807AA3
:405400000840C00603D4112010BD022010BD022020701A8A1889002102F04EFD002010BD68130020F8B50F46002100910088FFF7A3FD040012D000F02EF900280ED0E0798F
:40544000410641D4617E02264A07002A08DB8907402500291ADA2843E07135E00220F8BD02F05EF80021017021894180A1898180217E4170E189C1803E7005460178134879
:4054800002F080FA284602F0BAFC1DE0204600F013F9012806D068460AF068F9002803D00720F8BD2A20F8BDE07900992843E071204601F0E1FD607E0421304360760448B2
:4054C000C28A2046FEF72EFE0020F8BD1D040000681300203EB500220F236C460292238100910190628169460EC900200AF01EFA3EBD000070B5054600F062FA040027D0A8
:4055000003202071254600264035EE76E6702046FFF7D6F901F020F80920FEF7FFFDA07800F00CFD0121204600F0E2FA2E706E70AE7000212046FFF7E2FC0749887B401CA0
:405540008873A078FFF74AFE012001F037F970BD284601F0FFF870BDBC13002010B5002801D0002400E00A4C002C0FD020464030417802290AD1002141702046FEF79AFB7F
:40558000002803D10221204600F0B2FA10BD0000DC13002070B503460D460088FFF7ECFC04000BD000F077F8002807D012481121807A0840C00603D4112070BD022070BD72
:4055C00020464030418A008A491C41430804C10C5888884201D2122070BD20822079072802D12046FFF7FCF8022028702089002102F08AFC002070BD68130020016A491CA1
:40560000016204D1817E491C4906490E81767047C169491CC16104D1C17E491C4906490EC176704770B500250646002801D0002400E0114C002C1CD0882200212046FCF790
:405640006DFFA67000202646207140363070204600F018F8204601F093F9084820820848B577807A1121084000D001202075012070BD002070BD0000DC130020B80B000057
:4056800068130020002101628176C161C17620300177417770470079002805D0012803D0022801D001207047002070474030807F002800D00120704740300078002807D002
:4056C000012805D0052803D00E2801D0012070470020704710B5807801F002F9002800D0012010BD10B500F0A0FB0446AC20FDF7D7FB010B02D02046FFF7ECFE10BD00004A
:4057000070B5054604464035A87F002823D1FF206075A0788821144A484380186030417F8823491CC9B24177A078584380186030052901D300214177A07888214843801894
:405740006030467F0677A1783046FEF70BFC002802D00120A87770BD0220A877A078314600F0B2FC70BD0000BC1300200020401C0006000EFBD0002070470000F0B51546A9
:405780008207920F85B0C004C00E02926A469080002D01D0002400E0514C002C29D0084600F0BEFB03906846808800280BD00298012845D0022843D003280CD03D20005DC7
:4057C000012872D086E00398FDF76AFB01462046FFF765F87EE00020029002A809F0A6FF002807D03D20005D012876D12046FFF705FF72E06846029E838832460021039824
:40580000FDF7C4FA0398FDF74BFB01462046FFF746F8284600F0B0FA01AA21463046FEF73FFE002806D0304609F0F0FF3D204C21085528E0F5773146204601F0EFF94CE065
:40584000002000902789684609F060FF002802D0002005B0F0BD6846009E8388321D00210398FDF793FA0398FDF71AFB01462046FFF715F8284600F07FFA25464035287EB2
:4058800000280CD103E02046FFF7AAFA25E001AA21463046029BFEF737FE002806D0304609F0AAFF3D202873EDE710E00298FFF705F8390A00010143377071706846808887
:4058C000B070000AF0703046FFF700FD05E02046FFF794FE284600F04FFA0120B9E70000DC13002010B5044A917B002901D0491E9173FFF797FE10BDBC130020F8B50746A6
:4059000006464037B87F00283DD0B0788821009048431F4945186035287F0099FEF737FB012831D0287F401CC4B2052C00D300240020B877FF276F772F77A8770246014611
:40594000009800F041FD717DFF2903D0304600F0D8FF777501F0F0FA00252F462246694630460097FEF764FF0099002902D03046FEF725FB641CE4B2052C00D300246D1C78
:40598000EDB2052DEAD3F8BD0320B877F8BD0000BC13002010B502460021084B03E0002901D0002000E018460479944204D0491C0906090EF3D0002010BD0000DC13002081
:4059C00000B50120FFF7E6FF00BD10B5044601F0A7FD2189018080346168416061682831816002F0C7F910BDF7B50646087982B00C46092807D0A078F0770846FFF756FEAE
:405A0000012806D010E0304609F014FF022005B0F0BDA1788820284A484380186030007FFEF7A0FA012810D0A078FEF741FE01280BD037780121304601F02BFA2546203507
:405A4000062F36D00B2F0FD107E06846027C21463046FEF717FF0D20D9E72046FEF72AF9012801D1002028772046FFF7A7FA054604AA21463046FEF77CFD01205F21085572
:405A80006946087C0090A07833463A46294600F0C7FA69460A7CA0780323294600F072FEA0782946FEF744F8304609F0C3FE0020ADE70120D7E70000BC13002010B5024639
:405AC0004032937F0021002B03D1927E002A00D00121064AD279002A00D000210279092A00D10121807800F077FE10BD6C14002070B50C460646FEF7DDF8002814D1012CEE
:405B00000ED935464035A87800280DD1687802280AD03079092807D03046FFF7DBFD0446204600F086FD70BD0124F9E770B50D4601280BD0082808D1A8241146B020FDF7CE
:405B4000B5F929462046FDF7B1F970BD2020FAE710B501460820FDF7A9F910BD10B50446FF20F130012C01D1FF20D530002200F07EFE1020FDF794F90349A0430880014670
:405B80001020FDF793F910BD6E02002010B504461020FDF785F90449A043088001461020FDF784F910BD00006E02002010B50446012802D0082C07D102E0FF20D53001E02D
:405BC000FF20F13000F048FE1020FDF769F904492043088001461020FDF768F910BD00006E02002010B504461020FDF759F904492043088001461020FDF758F910BD000002
:405C00006E020020F8B507460120B84085B214460E46012229467C2000F029FE32462946782000F024FE6078217800020143E078A5780002054360792679000206430C20A1
:405C400047430D2080013C182046FDF72FF9241D29462046FDF72AF9201D3146FDF726F9F8BD8B00034310B5D10191201943C000FDF71CF910BD000070B505460C464078E8
:405C800029780002014341200001FDF70FF9E878A978000201430A48FDF708F960782178000201438320C000FDF700F9E078A1780002014302480830FDF7F8F870BD000040
:405CC0001404000070B50D46044681B201208002FDF7ECF8210C0448FDF7E8F881202946C000FDF7E3F870BD0404000070B5054600242846FDF7D4F8641CA4B2102CF8D35C
:405D000070BD10B50C460146B020FDF7CFF8FF2021462D30FDF7CAF810BD10B50C460146B020FDF7C3F8204600F0CCFD0021FDF7BDF810BD70B50C46054600F005F821463E
:405D40002846FFF7DEFF70BD10B50C460146B020FDF7ACF8FF2021462930FDF7A7F810BD10B50146B020FDF7A1F8FF20002220211D3000F07CFD10BD010210B54D310020DC
:405D8000FDF794F810BD000010B504020029014608D0B020FDF78AF8214675310020FDF785F810BDB020FDF781F8512000214001FDF77CF800210348FDF778F8214676317C
:405DC000ECE70000240A000010B554210020FDF76DF810BD10B553210020FDF767F810BD10B5034908884880FFF7D0FE10BD00006E02002010B502484088FFF7F3FE10BD94
:405E00006E02002010B5FDF741F910BD10B552210020FDF74BF810BD10B504461820FDF73FF88004400F207010BD10B5B020FDF737F8C0B210BDF8B50E4601461C46154618
:405E4000B020FDF733F8FF20E930FDF729F80746FF200130FDF724F83080FF200930FDF71FF82880FF200530FDF71AF8208079070698490F0170F8BD10B5C820FDF710F83F
:405E800010BD10B50C46002812D05820FDF708F82070000A60705C20FDF702F8A070000AE0706020FCF7FCFF2071000A607110BDFF20C130FCF7F4FF2070000A6070FF2024
:405EC000C530FCF7EDFFA070000AE070FF20C930E8E770B504466820FCF7E2FF06466C20FCF7DEFF05467020FCF7DAFF2670310A6170A570290AE1702071000A607170BD8F
:405F000010B50446012905D01820FCF7C9FFC00B207010BD4820FCF7C3FF8007C00FF7E70120C002704710B50C460146B020FCF7BDFF0321A0014902401810BD8821074B40
:405F4000414310B5C918FF2260314A770A7700228A77114600F038FA10BD0000BC13002088225043074A10B58018FF21603041770177002181770448418EFF201D3000F050
:405F80006BFC10BDBC1300206813002010B50C460146B020FCF78AFFFF202530FCF780FF0222214600F002F810BD000010B50023884201D8081A03E00024E443201A4018E4
:405FC000044980B2884201D8824200D90123184610BD0000FF7F0000F8B503465078167800020643D07895780002054350791779000288240743002900D098241946B020AA
:40600000FCF754FF31462046FCF750FF201D2946FCF74CFF204608303946FCF747FFF8BDFFB581B014460D4606460A9FFFF77BFF3B460021049AFCF719FF02484019845548
:4060400005B0F0BD7202002070B506460D4611242520A40108214001FCF728FF2B46324600212046FCF702FF70BD70B5212405466401FFF7AFFE10232A4600212046FCF758
:40608000F5FE70BD10B5044640782178000201438F20C000FCF70AFFE078A178000201430148FCF703FF10BD7C04000010B50C460146B020FCF7FAFE802021460143FF20EA
:4060C0002930FCF7F3FE10BD70B50D460146B020FCF7ECFEFF241D342046FCF7E1FE01090901FF202943013001432046FCF7DEFE70BDF8B500242646012807D0032802D0CE
:40610000052808D105E002240A2604E004240C2601E004240D26492701463F013846FCF7C5FE25204001FCF7BBFEC5B228462042F7D0252031464001FCF7B8FE00213846F4
:40614000FCF7B4FE2846F8BD70B50D46044601461646B020FCF7AAFE512029464001FCF7A5FE31460648FCF7A1FE032189030820FFF71CFD210275310020FCF797FE70BDF4
:40618000240A000070B50D4604460146B020FCF78DFEFF2029461930FCF788FE21024B310020FCF783FE70BD70B5491E8CB205460146B020FCF77AFEFF2021461930FCF751
:4061C00075FE29024C310020FCF770FE70BD0000054910B5884200D908460146FF206130FCF764FE10BD0000FF0F0000054910B5884200D908460146FF206530FCF756FE65
:4062000010BD0000FF0F000070B588251446002900D098250146B020FCF748FE2846FCF73FFE2070000A6070281DFCF739FEA070000AE07028460830FCF732FE2071000A0C
:40624000607170BD10B51446024611200B4680010021FCF7F7FD012C01D1FFF7B5FD10BD10B504460920C001FCF71AFE2070000A60700448FCF714FEA070000AE070FFF71B
:40628000A3FD10BD840400000121814010B589B200227C2000F0EBFA10BD000070B5FF210120FFF75BFCFF210820FFF757FC3020FFF76CFC80210020FCF7F8FD0022114692
:4062C0000320FCF721FE374DFF20A98DD530FCF7EDFD0024FF26F1362146B020FCF7E6FD298F3046FCF7E2FD2046FFF739FE641C2406240EF0D0FF20A98FF930FCF7D6FDBC
:4063000028481030044600F079F9204600F0BEF900F04CF8234CB82040346188FCF7C6FDA188BC20FCF7C2FDE188C420FCF7BEFDFF20698EE130FCF7B9FDA1200021000101
:40634000FCF7B4FD3920FFF74DFCFFF743FD93200721C000FCF7AAFDFFF736FDE020FFF7C5FCE820FFF7C2FCF020FFF7BFFC0020FEF776F8618A0C48FCF798FD0A48282134
:40638000001DFCF793FDFF210131AC20FCF78EFD832000218000FCF789FD5B210020FCF785FD70BD68130020140A000010B500217C20FCF77BFD00217820FCF777FD74214B
:4063C0000020FCF773FD10BD70B50D4601461446B020FCF76BFDFF261D363046FCF760FD01090901FF20294301308143002C01D1102041403046FCF759FD70BDF3B589B0BB
:40640000FF2001900D208001009048780D7800020543C8788E780002064348790979000201437C200791FCF73BFD06907820FCF737FD059074210020FCF738FD184800241B
:40644000049026E00120A04087B20098FCF728FD03900098FCF724FD02900098FCF720FD039A29465140029A72401143079A424011430BD10698074208D00598E040C10749
:406480000998C90F814201D1019405E0641C0498E4B20078A042D5D801980BB0F0BD0000A813002070B5FF257C20FCF7F9FC0849002401230A7805E01946A140014205D09A
:4064C000641CE4B2A242F7D8284670BD2546FBE7A813002010B504461820FCF7E1FC0721C90288436107890C01431820FCF7DEFC10BD10B50446E020FFF7F8FB2078224630
:40650000401CC3B20021E020FCF75CFC10BD000010B5044641790079042817D040000843A17B032901D8C9000843617B4A010243A079010207201143C00201431820FCF708
:40654000B5FC21881C20FCF7B1FC10BD08460149E5E700000204000010B5012000F02EF90120FFF713FB41210020FCF79FFC10BD10B5002000F022F90120FFF733FB402119
:406580000020FCF793FC10BD10B50C460146B020FCF78CFCFF2021460D30FCF787FC10BD70B50C4601461E461546B020FCF77EFCE92021468000FCF779FC75202946C000E7
:4065C000FCF774FCEB2031468000FCF76FFC6C433B20A1B20001FCF769FC70BD70B50C4601461546B020FCF761FC21468420FCF75DFC29468020FCF759FC70BD10B50446D2
:406600004078217800020143FF20C130FCF74EFCE078A17800020143FF20C530FCF746FC6079217900020143FF20C930FCF73EFC10BD70B5A124054624012046FCF730FCCC
:40664000012D07D041084900814202D02046FCF72DFC70BD014601221143F5E710B5044640782178000201436820FCF71FFCE078A178000201436C20FCF718FC60792179AC
:40668000000201437020FCF711FC10BD10B5044640782178000201435820FCF707FCE078A178000201435C20FCF700FC60792179000201436020FCF7F9FB10BD10B5044605
:4066C000E820FFF713FB20782246401CC3B20021E820FCF777FB10BD10B50C460146B020FCF7E4FB21460248FCF7E0FB10BD00001C0A000010B50C460146B020FCF7D6FBFE
:40670000FF2021460530FCF7D1FB10BD70B5054688000521FBF758FE84B22946B020FCF7C5FB21460448FCF7C1FB290272310020FCF7BCFB70BD0000040A000010B5044640
:406740000146B020FCF7B2FB210273310020FCF7ADFB10BD10B504460146B020FCF7A6FB210270310020FCF7A1FB10BD10B504460146B020FCF79AFB210271310020FCF793
:4067800095FB10BDF8B505461E4614460F46084600F098F800902802A1000843304304462946B020FCF782FB21460098FCF77EFB0148C0194655F8BD7702002010B504460C
:4067C000B820FCF76DFB8005800DA102014389B2B820FCF76BFB10BD70B50D460146B020FCF764FBFF241D342046FCF759FB40218843A90101432046FCF758FB70BD70B51A
:40680000A124054624012046FCF74AFB0222002D01D0104300E0904301462046FCF746FB70BD70B50D460146B020FCF73FFBFF2029460930FCF73AFBA12424012046FCF761
:406840002FFB0222002D01D0104300E0904301462046FCF72BFB70BD70B50C460546FCF71FFB204301462846FCF720FB70BDF8B516460D460746FCF713FB014600202C0074
:4068800003D104E06408401C80B2E207FAD08640A9430E43B1B23846FCF708FBF8BD0000024A1018405C8007800F70477702002010B50146B020FCF7F9FAFF202D30FCF73D
:4068C000EFFA10BD8000FF30413070470246FF20052902D201484018805C70477202002010B50146B020FCF7E1FAFF202930FCF7D7FA10BD0A4600B501461046FFF7E6FFAA
:4069000000BD38B50C46054600216846009108F02DFF002804D1009928464C7000F09EFB38BD10B5044680780021FFF72DFE01212046FFF7DDF810BD436E002B0CD00B60C2
:40694000014660318B781370826E4266CA788A700021816608467047FF20704710B50346446E6033002C04D0846E002C04D0FF2010BD41669A7001E08166DA70002010BD21
:406980000021416681667047406E002801D000207047FF20704770B50446C0790D46810610D5DF210840E07100F0BAFD0570218941804034218A8180618AC180A18A01819D
:4069C00001F03AF970BD000010B50446FEF76EFE01280AD1A1788820054A484380186030007FFDF7BFFA012801D000F0A5FA10BDBC13002070B50D460446FDF75BF901286B
:406A00001CD02079042801D0072816D1E879AE7900020643A0783146FFF7B8FA012813D03246691C204600F035FA02212046FDF788FE01212046FFF75BF870BD01222421BD
:406A4000204600F0C3FA70BD28214C2001552046FEF7C6F970BD70B50D460646FDF707FE002847D120213046FDF767FB3446687840346073E87820220002E081A978084368
:406A8000E0816879010228790843218A814203D0F1791143F1712082E8790102A8790843618A814203D0F1791143F1716082687A0102287A0843A18AE180814203D0F179F1
:406AC0001143F171A082A08A218A8000FBF77CFC401E618A80B2814200D9608201213046FDF732FEE87AA97A000201430022304600F0DCFA70BD0000F8B50C460546FDF7B6
:406B0000D9F8012849D0294EB07AC00709D02846403000900078002805D0102805D01F212EE01A212CE0002700E001272846FEF735FA002823D02E4680360822611C7068F7
:406B4000FBF7E3FC7068617A20300172A17A417270682146183008220B31FBF7D6FC21462846042213313430FBF7CFFC39462846FDF7F6FF002810D1002F0FD012E00721E8
:406B80000322284600F022FAF28A08212846FDF7C9FA11212846FDF7DAFDF8BD06212846FDF7D8FD009801210176F8BD6813002010B5FEF715F810BD38B5044600200090F2
:406BC00020790D46042801D007281BD12046FDF771F8012817D0684608F0C8FD002811D10C486A78807A00991040112210402075607E082210436076204600F079F92046B9
:406C0000FDF7EBFD38BD08222421204600F0DEF938BD0000681300207047000070B506460D460846FEF796F804463046FEF733FD00280CD0142C04D32946304600F0C7F877
:406C400005E00549A0000A58294630469047284608F0DCFD70BD00007C1C010070B50D460021002801D0002400E00C4C002C14D020464030C177807F032802D12046FEF7BA
:406C80003DFE2046FFF7A0FE142D04D20449A800095820468847FEF769FD70BDDC130020CC1C010010B5014640310C4609780E2903D1FDF7D9FF0120207610BD10B54021AC
:406CC000095C0F2901D1FDF7F2FF10BD4021095C0F2902D1002120304177704738B5044600220E4800920D46807A11210840C0060ED52046FEF7E0FC012809D0684608F032
:406D000035FD002803D12046009900F053F938BD2946204600F05BF838BD00006813002010B51021FDF709FA10BD10B54978FDF7E7FE10BD10B5FDF7C2FF10BD01212030AE
:406D40004177704710B54021095C0C2901D1FDF7CBFF10BD10B54021095C0D2901D1FDF7BFFF10BD70B5044600790D46052803D0062801D0082802D12046FDF7D3FE68782D
:406D80004C21085509212046FDF7E4FC2046FFF7C8FD2046FCF78EFF0128A07805D0FFF7D9FC2046FEF78AFE70BDFFF7DFFCF8E710B50446FF21FDF7C0F916214C20015528
:406DC000A078FFF7C7FC2046FEF778FE10BD70B50C460546FEF76AFC002802D02078687570BD21782846FFF78CFD70BD70B5054648780C46032802D12846FDF79EFE607862
:406E0000122803D110212846FDF797F970BD704738B5044600200D46009004212046FDF78CF968782076E8780002A081A9780843A08168790002E08129790843E081607E09
:406E400004210843607680070CD4684608F08EFC00281CD12046009900F00EF9607E022108436076E079410611D5BF210840E07100F056FB00210090017021894180A18911
:406E80008180217E4170E189C18000F0B8FF38BD7047704770B50446C07815460A4600280AD00020E070C1B2A078FFF795F8A0782946FFF767F970BD0120F3E770B5054685
:406EC000042008700C468420415908222031601CFBF71BFB29462046042238310930FBF714FB0D2229462046FEF77EFD002070BD70B5054609200C46087008220021601CDE
:406F0000FBF70CFB287D607004480922C07AA07029462046FEF768FD002070BD681300200B4610B501460B20187001221846FEF75BFD002010BD0000FEB50024164F03E021
:406F4000002C01D0002500E03D462846FFF71CFD00281BD15F20405D002817D16A4601A92846FFF7E9FC002810D1019869460A7806782946FEF738FD022E07D1A8780121F8
:406F8000FFF72AFC09212846FDF7E4FB641C2406240ED5D0FEBD0000DC13002010B50B46122119708178D977014601221846FEF71BFD10BD10B50B46132119708178D97726
:406FC000014601221846FEF70FFD10BD38B50546002000900C46684608F0C8FB002801D0072038BD00980D210170447002222946FEF7FAFC002038BD0B4610B50146052043
:40700000187001221846FEF7EFFC002010BD0B4610B501460620187001221846FEF7E4FC002010BD38B5054600200090684608F09DFB002801D01F2038BD009C022020708B
:407040004C20405D6070A878E0772846FFF769FC022229462046FEF7C7FC38BD10B50B46072119708178D977014602221846FEF7BBFC002010BD000010B50B460A4904462C
:4070800008880C221A704A795A709870000AD870C8881871000A5871062221461846FEF7A3FC002010BD000068130020F8B50446403417460E460546E289617B8078FFF750
:4070C0008DFA002F0DD100F02FFAE2896979FDF7D1F9FFF78BF8608A002800D00120FFF78EFBE388A08A984200D90346628A218AA878FFF755FAA08A218AC000FBF764F96C
:4071000081B2ED208000FBF7D1FEE089E188C0080A30081881B21920C001814200D90146A878FFF7E7FAA8783146FFF73DF801212846FEF7DDFCF8BD00B500F01FF800BD85
:4071400010B50A4604460B491046FBF73DF94034C01C218A80B2814200D208464900081A81B20548E182C089002802D0884200D2E08210BD71020000A81300204018400884
:40718000704770B505460C46000702D5A0B2FDF78FFFE80702D0200EFDF72AF870BD70B5054650C8FCF7F4FCFBF7ACFC2889C01F0300FBF7A5FB0C07130B171A1D0B0B2093
:4071C0000B100C0BA0B23146FFF7DBFF70BD204600F044FB70BDFDF72FFF70BD2046FCF72CFE70BDFCF747FF70BDFDF747FF70BDFDF745FF70BDE0B2FEF776F870BD000082
:40720000F3B5002483B0064627460094019408200294FBF745FE05460640400713D55020FBF73EFEC0B20090700707D5009CA00803D1FBF7CDFC012800D10127002204208C
